{
  "contractName": "DAOCore",
  "abi": [
    {
      "constant": true,
      "inputs": [],
      "name": "debatePeriod",
      "outputs": [
        {
          "name": "",
          "type": "uint256"
        }
      ],
      "payable": false,
      "stateMutability": "view",
      "type": "function"
    },
    {
      "constant": true,
      "inputs": [
        {
          "name": "",
          "type": "uint256"
        }
      ],
      "name": "proposals",
      "outputs": [
        {
          "name": "recipient",
          "type": "address"
        },
        {
          "name": "creator",
          "type": "address"
        },
        {
          "name": "amount",
          "type": "uint256"
        },
        {
          "name": "initiatedAt",
          "type": "uint256"
        },
        {
          "name": "yea",
          "type": "uint256"
        },
        {
          "name": "nay",
          "type": "uint256"
        }
      ],
      "payable": false,
      "stateMutability": "view",
      "type": "function"
    },
    {
      "inputs": [],
      "payable": false,
      "stateMutability": "nonpayable",
      "type": "constructor"
    }
  ],
  "bytecode": "0x608060405234801561001057600080fd5b5032600260006101000a81548173ffffffffffffffffffffffffffffffffffffffff021916908373ffffffffffffffffffffffffffffffffffffffff160217905550610203806100616000396000f3fe60806040526004361061004c576000357c0100000000000000000000000000000000000000000000000000000000900463ffffffff1680630114909d14610051578063013cf08b1461007c575b600080fd5b34801561005d57600080fd5b50610066610146565b6040518082815260200191505060405180910390f35b34801561008857600080fd5b506100b56004803603602081101561009f57600080fd5b810190808035906020019092919050505061014c565b604051808773ffffffffffffffffffffffffffffffffffffffff1673ffffffffffffffffffffffffffffffffffffffff1681526020018673ffffffffffffffffffffffffffffffffffffffff1673ffffffffffffffffffffffffffffffffffffffff168152602001858152602001848152602001838152602001828152602001965050505050505060405180910390f35b60005481565b60018181548110151561015b57fe5b90600052602060002090600702016000915090508060000160009054906101000a900473ffffffffffffffffffffffffffffffffffffffff16908060010160009054906101000a900473ffffffffffffffffffffffffffffffffffffffff1690806002015490806003015490806004015490806005015490508656fea165627a7a7230582079892db0d6a6f72f489789b2723df0ee84a38d7bd0656f5dc491f961e880ad070029",
  "source": "pragma solidity 0.5.0;\n\n\n// Some code inspired by https://github.com/slockit/DAO/blob/develop/DAO.sol\ncontract DAOCore {\n    uint public debatePeriod; // weeks\n    \n    //Token contract\n    // Token token;\n\n    Proposal[] public proposals;\n\n    struct Proposal {\n        address recipient; // grant recipient\n        address creator; // grant creator\n        uint amount; // wei\n        uint initiatedAt; //timestamp\n        uint yea; // votes\n        uint nay; // votes\n        mapping(address => bool) hasVoted; // has address voted?\n    }\n\n    address admin;\n    address[] principals;\n\n    constructor () public {\n        admin = tx.origin;\n    }\n}",
  "sourcePath": "/Users/michaeljcohen/Desktop/projects/DAOManager/contracts/DAOCore.sol",
  "compiler": {
    "name": "solc",
    "version": "0.5.0+commit.1d4f565a.Emscripten.clang"
  },
  "schemaVersion": "3.0.2",
  "updatedAt": "2019-12-14T22:19:25.918Z",
  "devdoc": {
    "methods": {}
  },
  "userdoc": {
    "methods": {}
  }
}