{
  "contractName": "EasyDAO",
  "abi": [
    {
      "constant": true,
      "inputs": [
        {
          "name": "",
          "type": "uint256"
        }
      ],
      "name": "proposals",
      "outputs": [
        {
          "name": "recipient",
          "type": "address"
        },
        {
          "name": "proposalUrl",
          "type": "string"
        },
        {
          "name": "amount",
          "type": "uint256"
        },
        {
          "name": "initiatedAt",
          "type": "uint256"
        },
        {
          "name": "yea",
          "type": "uint256"
        },
        {
          "name": "nay",
          "type": "uint256"
        },
        {
          "name": "amountWithdrawn",
          "type": "bool"
        }
      ],
      "payable": false,
      "stateMutability": "view",
      "type": "function"
    },
    {
      "constant": true,
      "inputs": [],
      "name": "votingPeriod",
      "outputs": [
        {
          "name": "",
          "type": "uint256"
        }
      ],
      "payable": false,
      "stateMutability": "view",
      "type": "function"
    },
    {
      "constant": true,
      "inputs": [],
      "name": "daoType",
      "outputs": [
        {
          "name": "",
          "type": "string"
        }
      ],
      "payable": false,
      "stateMutability": "view",
      "type": "function"
    },
    {
      "inputs": [
        {
          "name": "_daoType",
          "type": "string"
        },
        {
          "name": "_entryFee",
          "type": "uint256"
        },
        {
          "name": "_votingPeriod",
          "type": "uint256"
        },
        {
          "name": "_factoryAddress",
          "type": "address"
        }
      ],
      "payable": true,
      "stateMutability": "payable",
      "type": "constructor"
    },
    {
      "payable": true,
      "stateMutability": "payable",
      "type": "fallback"
    },
    {
      "anonymous": false,
      "inputs": [
        {
          "indexed": true,
          "name": "joiner",
          "type": "address"
        }
      ],
      "name": "DAOJoined",
      "type": "event"
    },
    {
      "constant": false,
      "inputs": [],
      "name": "join",
      "outputs": [],
      "payable": true,
      "stateMutability": "payable",
      "type": "function"
    },
    {
      "constant": false,
      "inputs": [
        {
          "name": "_proposalUrl",
          "type": "string"
        },
        {
          "name": "_amount",
          "type": "uint256"
        }
      ],
      "name": "makeProposal",
      "outputs": [],
      "payable": false,
      "stateMutability": "nonpayable",
      "type": "function"
    },
    {
      "constant": false,
      "inputs": [
        {
          "name": "_proposalId",
          "type": "uint256"
        },
        {
          "name": "_vote",
          "type": "uint256"
        }
      ],
      "name": "voteOnProposal",
      "outputs": [],
      "payable": false,
      "stateMutability": "nonpayable",
      "type": "function"
    },
    {
      "constant": false,
      "inputs": [
        {
          "name": "_proposalId",
          "type": "uint256"
        }
      ],
      "name": "withdrawAwardedFunds",
      "outputs": [],
      "payable": false,
      "stateMutability": "nonpayable",
      "type": "function"
    },
    {
      "constant": true,
      "inputs": [
        {
          "name": "_proposalId",
          "type": "uint256"
        }
      ],
      "name": "isProposalApproved",
      "outputs": [
        {
          "name": "_approved",
          "type": "bool"
        }
      ],
      "payable": false,
      "stateMutability": "view",
      "type": "function"
    },
    {
      "constant": true,
      "inputs": [],
      "name": "getNumberOfProposals",
      "outputs": [
        {
          "name": "_numProposals",
          "type": "uint256"
        }
      ],
      "payable": false,
      "stateMutability": "view",
      "type": "function"
    },
    {
      "constant": true,
      "inputs": [
        {
          "name": "_proposalId",
          "type": "uint256"
        }
      ],
      "name": "getProposal",
      "outputs": [
        {
          "name": "_recipient",
          "type": "address"
        },
        {
          "name": "_proposalUrl",
          "type": "string"
        },
        {
          "name": "_amount",
          "type": "uint256"
        },
        {
          "name": "_initiatedAt",
          "type": "uint256"
        },
        {
          "name": "_yea",
          "type": "uint256"
        },
        {
          "name": "_nay",
          "type": "uint256"
        },
        {
          "name": "_amountWithdrawn",
          "type": "bool"
        }
      ],
      "payable": false,
      "stateMutability": "view",
      "type": "function"
    },
    {
      "constant": true,
      "inputs": [],
      "name": "getDAO",
      "outputs": [
        {
          "name": "_votingPeriod",
          "type": "uint256"
        },
        {
          "name": "_entryFee",
          "type": "uint256"
        },
        {
          "name": "_members",
          "type": "uint256"
        },
        {
          "name": "_numProposals",
          "type": "uint256"
        },
        {
          "name": "_balance",
          "type": "uint256"
        },
        {
          "name": "_daoType",
          "type": "string"
        }
      ],
      "payable": false,
      "stateMutability": "view",
      "type": "function"
    },
    {
      "constant": true,
      "inputs": [
        {
          "name": "_spender",
          "type": "address"
        }
      ],
      "name": "isDelegate",
      "outputs": [
        {
          "name": "_isDelegate",
          "type": "bool"
        }
      ],
      "payable": false,
      "stateMutability": "view",
      "type": "function"
    },
    {
      "constant": false,
      "inputs": [
        {
          "name": "_spender",
          "type": "address"
        }
      ],
      "name": "delegate",
      "outputs": [],
      "payable": false,
      "stateMutability": "nonpayable",
      "type": "function"
    }
  ],
  "bytecode": "0x60806040526001600455600160085560405162001cc038038062001cc0833981018060405260808110156200003357600080fd5b8101908080516401000000008111156200004c57600080fd5b828101905060208101848111156200006357600080fd5b81518560018202830111640100000000821117156200008157600080fd5b50509291906020018051906020019092919080519060200190929190805190602001909291905050508360009080519060200190620000c292919062000174565b5082600781905550816001819055506001600960003273ffffffffffffffffffffffffffffffffffffffff1673ffffffffffffffffffffffffffffffffffffffff16815260200190815260200160002060006101000a81548160ff02191690831515021790555080600360006101000a81548173ffffffffffffffffffffffffffffffffffffffff021916908373ffffffffffffffffffffffffffffffffffffffff1602179055505050505062000223565b828054600181600116156101000203166002900490600052602060002090601f016020900481019282601f10620001b757805160ff1916838001178555620001e8565b82800160010185558215620001e8579182015b82811115620001e7578251825591602001919060010190620001ca565b5b509050620001f79190620001fb565b5090565b6200022091905b808211156200021c57600081600090555060010162000202565b5090565b90565b611a8d80620002336000396000f3fe6080604052600436106100c5576000357c0100000000000000000000000000000000000000000000000000000000900463ffffffff168063013cf08b146100c757806302a251a3146101d55780630777962714610200578063145d51151461026957806333809b6c146102a4578063506769d0146102cf578063556f6cc01461035f5780635c19a95c146103a4578063985da726146103f55780639abcc0cc146104a8578063b688a363146104fb578063c7f758a814610505578063ebe5729114610613575b005b3480156100d357600080fd5b50610100600480360360208110156100ea57600080fd5b81019080803590602001909291905050506106e5565b604051808873ffffffffffffffffffffffffffffffffffffffff1673ffffffffffffffffffffffffffffffffffffffff1681526020018060200187815260200186815260200185815260200184815260200183151515158152602001828103825288818151815260200191508051906020019080838360005b83811015610194578082015181840152602081019050610179565b50505050905090810190601f1680156101c15780820380516001836020036101000a031916815260200191505b509850505050505050505060405180910390f35b3480156101e157600080fd5b506101ea6107fb565b6040518082815260200191505060405180910390f35b34801561020c57600080fd5b5061024f6004803603602081101561022357600080fd5b81019080803573ffffffffffffffffffffffffffffffffffffffff169060200190929190505050610801565b604051808215151515815260200191505060405180910390f35b34801561027557600080fd5b506102a26004803603602081101561028c57600080fd5b810190808035906020019092919050505061086f565b005b3480156102b057600080fd5b506102b9610ba4565b6040518082815260200191505060405180910390f35b3480156102db57600080fd5b506102e4610bb1565b6040518080602001828103825283818151815260200191508051906020019080838360005b83811015610324578082015181840152602081019050610309565b50505050905090810190601f1680156103515780820380516001836020036101000a031916815260200191505b509250505060405180910390f35b34801561036b57600080fd5b506103a26004803603604081101561038257600080fd5b810190808035906020019092919080359060200190929190505050610c4f565b005b3480156103b057600080fd5b506103f3600480360360208110156103c757600080fd5b81019080803573ffffffffffffffffffffffffffffffffffffffff169060200190929190505050610fc6565b005b34801561040157600080fd5b5061040a6111fa565b6040518087815260200186815260200185815260200184815260200183815260200180602001828103825283818151815260200191508051906020019080838360005b8381101561046857808201518184015260208101905061044d565b50505050905090810190601f1680156104955780820380516001836020036101000a031916815260200191505b5097505050505050505060405180910390f35b3480156104b457600080fd5b506104e1600480360360208110156104cb57600080fd5b81019080803590602001909291905050506112df565b604051808215151515815260200191505060405180910390f35b610503611353565b005b34801561051157600080fd5b5061053e6004803603602081101561052857600080fd5b81019080803590602001909291905050506115db565b604051808873ffffffffffffffffffffffffffffffffffffffff1673ffffffffffffffffffffffffffffffffffffffff1681526020018060200187815260200186815260200185815260200184815260200183151515158152602001828103825288818151815260200191508051906020019080838360005b838110156105d25780820151818401526020810190506105b7565b50505050905090810190601f1680156105ff5780820380516001836020036101000a031916815260200191505b509850505050505050505060405180910390f35b34801561061f57600080fd5b506106e36004803603604081101561063657600080fd5b810190808035906020019064010000000081111561065357600080fd5b82018360208201111561066557600080fd5b8035906020019184600183028401116401000000008311171561068757600080fd5b91908080601f016020809104026020016040519081016040528093929190818152602001838380828437600081840152601f19601f82011690508083019250505050505050919291929080359060200190929190505050611769565b005b6002818154811015156106f457fe5b90600052602060002090600702016000915090508060000160009054906101000a900473ffffffffffffffffffffffffffffffffffffffff1690806001018054600181600116156101000203166002900480601f0160208091040260200160405190810160405280929190818152602001828054600181600116156101000203166002900480156107c65780601f1061079b576101008083540402835291602001916107c6565b820191906000526020600020905b8154815290600101906020018083116107a957829003601f168201915b5050505050908060020154908060030154908060040154908060050154908060060160009054906101000a900460ff16905087565b60015481565b600060036008541015610817576000905061086a565b600260085481151561082557fe5b04600a60008473ffffffffffffffffffffffffffffffffffffffff1673ffffffffffffffffffffffffffffffffffffffff168152602001908152602001600020541190505b919050565b60015460056000838152602001908152602001600020600301540142111515610900576040517f08c379a000000000000000000000000000000000000000000000000000000000815260040180806020018281038252601b8152602001807f566f74696e6720706572696f64207374696c6c206f6e676f696e67000000000081525060200191505060405180910390fd5b3373ffffffffffffffffffffffffffffffffffffffff166005600083815260200190815260200160002060000160009054906101000a900473ffffffffffffffffffffffffffffffffffffffff1673ffffffffffffffffffffffffffffffffffffffff161415156109d9576040517f08c379a00000000000000000000000000000000000000000000000000000000081526004018080602001828103825260118152602001807f496e76616c696420726563697069656e7400000000000000000000000000000081525060200191505060405180910390fd5b6005600082815260200190815260200160002060060160009054906101000a900460ff16151515610a72576040517f08c379a00000000000000000000000000000000000000000000000000000000081526004018080602001828103825260178152602001807f56616c756520616c72656164792077697468647261776e00000000000000000081525060200191505060405180910390fd5b60056000828152602001908152602001600020600501546005600083815260200190815260200160002060040154111515610b15576040517f08c379a00000000000000000000000000000000000000000000000000000000081526004018080602001828103825260178152602001807f50726f706f73616c20686173206e6f742070617373656400000000000000000081525060200191505060405180910390fd5b60016005600083815260200190815260200160002060060160006101000a81548160ff0219169083151502179055503373ffffffffffffffffffffffffffffffffffffffff166108fc60056000848152602001908152602001600020600201549081150290604051600060405180830381858888f19350505050158015610ba0573d6000803e3d6000fd5b5050565b6000600160045403905090565b60008054600181600116156101000203166002900480601f016020809104026020016040519081016040528092919081815260200182805460018160011615610100020316600290048015610c475780601f10610c1c57610100808354040283529160200191610c47565b820191906000526020600020905b815481529060010190602001808311610c2a57829003601f168201915b505050505081565b60011515600960003373ffffffffffffffffffffffffffffffffffffffff1673ffffffffffffffffffffffffffffffffffffffff16815260200190815260200160002060009054906101000a900460ff161515141515610d17576040517f08c379a000000000000000000000000000000000000000000000000000000000815260040180806020018281038252600e8152602001807f4d757374206265206d656d62657200000000000000000000000000000000000081525060200191505060405180910390fd5b6000811480610d265750600181145b1515610d9a576040517f08c379a000000000000000000000000000000000000000000000000000000000815260040180806020018281038252600c8152602001807f496e76616c696420766f7465000000000000000000000000000000000000000081525060200191505060405180910390fd5b600660003373ffffffffffffffffffffffffffffffffffffffff1673ffffffffffffffffffffffffffffffffffffffff168152602001908152602001600020600083815260200190815260200160002060009054906101000a900460ff16151515610e6d576040517f08c379a00000000000000000000000000000000000000000000000000000000081526004018080602001828103825260118152602001807f48617320616c726561647920766f74656400000000000000000000000000000081525060200191505060405180910390fd5b60015460056000848152602001908152602001600020600301540142101515610efe576040517f08c379a00000000000000000000000000000000000000000000000000000000081526004018080602001828103825260158152602001807f566f74696e6720706572696f642065787069726564000000000000000000000081525060200191505060405180910390fd5b6000811415610f32576005600083815260200190815260200160002060050160008154809291906001019190505550610f59565b60056000838152602001908152602001600020600401600081548092919060010191905055505b6001600660003373ffffffffffffffffffffffffffffffffffffffff1673ffffffffffffffffffffffffffffffffffffffff168152602001908152602001600020600084815260200190815260200160002060006101000a81548160ff0219169083151502179055505050565b60011515600960003373ffffffffffffffffffffffffffffffffffffffff1673ffffffffffffffffffffffffffffffffffffffff16815260200190815260200160002060009054906101000a900460ff16151514151561108e576040517f08c379a000000000000000000000000000000000000000000000000000000000815260040180806020018281038252600e8152602001807f4d757374206265206d656d62657200000000000000000000000000000000000081525060200191505060405180910390fd5b600b60003373ffffffffffffffffffffffffffffffffffffffff1673ffffffffffffffffffffffffffffffffffffffff16815260200190815260200160002060009054906101000a900460ff16151515611150576040517f08c379a000000000000000000000000000000000000000000000000000000000815260040180806020018281038252601c8152602001807f4d656d6265722068617320616c72656164792064656c6567617465640000000081525060200191505060405180910390fd5b6001600b60003373ffffffffffffffffffffffffffffffffffffffff1673ffffffffffffffffffffffffffffffffffffffff16815260200190815260200160002060006101000a81548160ff021916908315150217905550600a60008273ffffffffffffffffffffffffffffffffffffffff1673ffffffffffffffffffffffffffffffffffffffff1681526020019081526020016000206000815480929190600101919050555050565b60008060008060006060600154600754600854611215610ba4565b3073ffffffffffffffffffffffffffffffffffffffff16316000808054600181600116156101000203166002900480601f0160208091040260200160405190810160405280929190818152602001828054600181600116156101000203166002900480156112c45780601f10611299576101008083540402835291602001916112c4565b820191906000526020600020905b8154815290600101906020018083116112a757829003601f168201915b50505050509050955095509550955095509550909192939495565b600060015460056000848152602001908152602001600020600301540142101561130c576000905061134e565b600560008381526020019081526020016000206005015460056000848152602001908152602001600020600401541115611349576001905061134e565b600090505b919050565b600754341415156113cc576040517f08c379a00000000000000000000000000000000000000000000000000000000081526004018080602001828103825260178152602001807f496e636f727265637420656e747279207061796d656e7400000000000000000081525060200191505060405180910390fd5b600960003373ffffffffffffffffffffffffffffffffffffffff1673ffffffffffffffffffffffffffffffffffffffff16815260200190815260200160002060009054906101000a900460ff1615151561148e576040517f08c379a00000000000000000000000000000000000000000000000000000000081526004018080602001828103825260188152602001807f5573657220697320616c72656164792061206d656d626572000000000000000081525060200191505060405180910390fd5b6001600960003373ffffffffffffffffffffffffffffffffffffffff1673ffffffffffffffffffffffffffffffffffffffff16815260200190815260200160002060006101000a81548160ff0219169083151502179055503373ffffffffffffffffffffffffffffffffffffffff167f810adbf938e1ff982913afdc1265b4d22a1618aa8818c46a6095e50459c09c0c60405160405180910390a2600360009054906101000a900473ffffffffffffffffffffffffffffffffffffffff1673ffffffffffffffffffffffffffffffffffffffff1663f63d13d76040518163ffffffff167c0100000000000000000000000000000000000000000000000000000000028152600401600060405180830381600087803b1580156115af57600080fd5b505af11580156115c3573d6000803e3d6000fd5b50505050600860008154809291906001019190505550565b6000606060008060008060006005600089815260200190815260200160002060000160009054906101000a900473ffffffffffffffffffffffffffffffffffffffff16600560008a8152602001908152602001600020600101600560008b815260200190815260200160002060020154600560008c815260200190815260200160002060030154600560008d815260200190815260200160002060040154600560008e815260200190815260200160002060050154600560008f815260200190815260200160002060060160009054906101000a900460ff16858054600181600116156101000203166002900480601f0160208091040260200160405190810160405280929190818152602001828054600181600116156101000203166002900480156117495780601f1061171e57610100808354040283529160200191611749565b820191906000526020600020905b81548152906001019060200180831161172c57829003601f168201915b505050505095509650965096509650965096509650919395979092949650565b60011515600960003373ffffffffffffffffffffffffffffffffffffffff1673ffffffffffffffffffffffffffffffffffffffff16815260200190815260200160002060009054906101000a900460ff161515141515611831576040517f08c379a000000000000000000000000000000000000000000000000000000000815260040180806020018281038252600e8152602001807f4d757374206265206d656d62657200000000000000000000000000000000000081525060200191505060405180910390fd5b611839611966565b60e0604051908101604052803373ffffffffffffffffffffffffffffffffffffffff16815260200184815260200183815260200142815260200160008152602001600081526020016000151581525090508060056000600454815260200190815260200160002060008201518160000160006101000a81548173ffffffffffffffffffffffffffffffffffffffff021916908373ffffffffffffffffffffffffffffffffffffffff16021790555060208201518160010190805190602001906119039291906119bc565b5060408201518160020155606082015181600301556080820151816004015560a0820151816005015560c08201518160060160006101000a81548160ff021916908315150217905550905050600460008154809291906001019190505550505050565b60e060405190810160405280600073ffffffffffffffffffffffffffffffffffffffff16815260200160608152602001600081526020016000815260200160008152602001600081526020016000151581525090565b828054600181600116156101000203166002900490600052602060002090601f016020900481019282601f106119fd57805160ff1916838001178555611a2b565b82800160010185558215611a2b579182015b82811115611a2a578251825591602001919060010190611a0f565b5b509050611a389190611a3c565b5090565b611a5e91905b80821115611a5a576000816000905550600101611a42565b5090565b9056fea165627a7a723058207e693c15ff25bc11813ff81aa5ff38f642d4e34fcc70a971a011974112297c520029",
  "source": "pragma solidity 0.5.0;\n\ninterface DAOFactoryContract {\n    function joinDAO() external;\n}\n\ncontract EasyDAO {\n    string public daoType;\n    uint256 public votingPeriod; // seconds\n\n    Proposal[] public proposals; // needed?\n\n    DAOFactoryContract factoryContract;\n\n    uint256 proposalId = 1;\n    mapping(uint256 => Proposal) proposalById; // proposalId => Proposal\n    mapping(address => mapping(uint256 => bool)) hasVoted; // voter => proposalId => bool hasVoted\n\n    struct Proposal {\n        address recipient; // grant recipient\n        string proposalUrl; // google doc, for example\n        uint256 amount; // wei\n        uint256 initiatedAt; //timestamp\n        uint256 yea; // votes\n        uint256 nay; // votes\n        bool amountWithdrawn;\n    }\n\n    event DAOJoined(address indexed joiner);\n\n    uint256 entryFee; // wei\n    uint256 members = 1; // num\n    mapping(address => bool) isMemberBool;\n\n    mapping(address => uint256) delegated; // voter => other voters who have delegated to them\n    mapping(address => bool) hasDelegated;\n\n    constructor(\n        string memory _daoType,\n        uint256 _entryFee,\n        uint256 _votingPeriod,\n        address _factoryAddress\n    ) public payable {\n        daoType = _daoType;\n        entryFee = _entryFee;\n        votingPeriod = _votingPeriod;\n        isMemberBool[tx.origin] = true;\n        factoryContract = DAOFactoryContract(_factoryAddress);\n    }\n\n    function() external payable {}\n\n    /* Enter DAO */\n    function join() public payable {\n        require(msg.value == entryFee, \"Incorrect entry payment\");\n        require(!isMemberBool[msg.sender], \"User is already a member\");\n\n        isMemberBool[msg.sender] = true;\n        emit DAOJoined(msg.sender);\n\n        factoryContract.joinDAO();\n        members++;\n    }\n\n    modifier isMember() {\n        require(isMemberBool[msg.sender] == true, \"Must be member\");\n        _;\n    }\n\n    function makeProposal(string memory _proposalUrl, uint256 _amount)\n        public\n        isMember\n    {\n        Proposal memory newProposal = Proposal({\n            recipient: msg.sender,\n            proposalUrl: _proposalUrl,\n            amount: _amount,\n            initiatedAt: block.timestamp,\n            yea: 0,\n            nay: 0,\n            amountWithdrawn: false\n        });\n\n        proposalById[proposalId] = newProposal;\n        proposalId++;\n    }\n\n    // _vote: 0 for no, 1 for yes\n    function voteOnProposal(uint256 _proposalId, uint256 _vote)\n        public\n        isMember\n    {\n        require(_vote == 0 || _vote == 1, \"Invalid vote\");\n        require(!hasVoted[msg.sender][_proposalId], \"Has already voted\");\n        require(\n            block.timestamp <\n                proposalById[_proposalId].initiatedAt + votingPeriod,\n            \"Voting period expired\"\n        );\n\n        if (_vote == 0) {\n            proposalById[_proposalId].nay++;\n        } else {\n            proposalById[_proposalId].yea++;\n        }\n\n        hasVoted[msg.sender][_proposalId] = true;\n    }\n\n    function withdrawAwardedFunds(uint256 _proposalId) public {\n        require(\n            block.timestamp >\n                proposalById[_proposalId].initiatedAt + votingPeriod,\n            \"Voting period still ongoing\"\n        );\n        require(\n            proposalById[_proposalId].recipient == msg.sender,\n            \"Invalid recipient\"\n        );\n        require(\n            !proposalById[_proposalId].amountWithdrawn,\n            \"Value already withdrawn\"\n        );\n        require(\n            proposalById[_proposalId].yea > proposalById[_proposalId].nay,\n            \"Proposal has not passed\"\n        );\n\n        proposalById[_proposalId].amountWithdrawn = true;\n        (msg.sender).transfer(proposalById[_proposalId].amount);\n    }\n\n    function isProposalApproved(uint256 _proposalId)\n        public\n        view\n        returns (bool _approved)\n    {\n        if (\n            block.timestamp <\n            proposalById[_proposalId].initiatedAt + votingPeriod\n        ) return false; // voting period ongoing;\n\n        if (proposalById[_proposalId].yea > proposalById[_proposalId].nay) {\n            return true;\n        } else {\n            return false;\n        }\n    }\n\n    function getNumberOfProposals()\n        public\n        view\n        returns (uint256 _numProposals)\n    {\n        return proposalId - 1;\n    }\n\n    function getProposal(uint256 _proposalId)\n        public\n        view\n        returns (\n            address _recipient,\n            string memory _proposalUrl,\n            uint256 _amount,\n            uint256 _initiatedAt,\n            uint256 _yea,\n            uint256 _nay,\n            bool _amountWithdrawn\n        )\n    {\n        return (\n            proposalById[_proposalId].recipient,\n            proposalById[_proposalId].proposalUrl,\n            proposalById[_proposalId].amount,\n            proposalById[_proposalId].initiatedAt,\n            proposalById[_proposalId].yea,\n            proposalById[_proposalId].nay,\n            proposalById[_proposalId].amountWithdrawn\n        );\n    }\n\n    function getDAO()\n        public\n        view\n        returns (\n            uint256 _votingPeriod,\n            uint256 _entryFee,\n            uint256 _members,\n            uint256 _numProposals,\n            uint256 _balance,\n            string memory _daoType\n        )\n    {\n        return (\n            votingPeriod,\n            entryFee,\n            members,\n            getNumberOfProposals(),\n            address(this).balance,\n            daoType\n        );\n    }\n\n    function isDelegate(address _spender)\n        public\n        view\n        returns (bool _isDelegate)\n    {\n        if (members < 3) return false;\n\n        return (delegated[_spender] > members / 2);\n    }\n\n    /* give unquestioned power of purse */\n    function delegate(address _spender) public isMember {\n        require(!hasDelegated[msg.sender], \"Member has already delegated\");\n\n        hasDelegated[msg.sender] = true;\n        delegated[_spender]++;\n    }\n}\n",
  "sourcePath": "/Users/michaeljcohen/Desktop/projects/easy-dao/contracts/EasyDAO.sol",
  "compiler": {
    "name": "solc",
    "version": "0.5.0+commit.1d4f565a.Emscripten.clang"
  },
  "schemaVersion": "3.0.2",
  "updatedAt": "2019-12-17T22:08:54.006Z",
  "devdoc": {
    "methods": {}
  },
  "userdoc": {
    "methods": {}
  }
}