{
  "contractName": "ForexTrade",
  "abi": [
    {
      "constant": true,
      "inputs": [],
      "name": "rate",
      "outputs": [
        {
          "name": "",
          "type": "int256"
        }
      ],
      "payable": false,
      "stateMutability": "view",
      "type": "function"
    },
    {
      "inputs": [
        {
          "name": "_link",
          "type": "address"
        },
        {
          "name": "_oracle",
          "type": "address"
        },
        {
          "name": "_currencyA",
          "type": "string"
        },
        {
          "name": "_currencyB",
          "type": "string"
        },
        {
          "name": "_jobId",
          "type": "bytes32"
        },
        {
          "name": "_factoryAddress",
          "type": "address"
        }
      ],
      "payable": false,
      "stateMutability": "nonpayable",
      "type": "constructor"
    },
    {
      "anonymous": false,
      "inputs": [
        {
          "indexed": true,
          "name": "initiator",
          "type": "address"
        }
      ],
      "name": "TradeInitiated",
      "type": "event"
    },
    {
      "anonymous": false,
      "inputs": [
        {
          "indexed": true,
          "name": "acceptor",
          "type": "address"
        }
      ],
      "name": "TradeAccepted",
      "type": "event"
    },
    {
      "anonymous": false,
      "inputs": [
        {
          "indexed": true,
          "name": "sender",
          "type": "address"
        },
        {
          "indexed": false,
          "name": "oldRate",
          "type": "int256"
        },
        {
          "indexed": false,
          "name": "newRate",
          "type": "int256"
        }
      ],
      "name": "TradeRepriced",
      "type": "event"
    },
    {
      "anonymous": false,
      "inputs": [
        {
          "indexed": true,
          "name": "liquidated",
          "type": "address"
        },
        {
          "indexed": false,
          "name": "timestamp",
          "type": "uint256"
        }
      ],
      "name": "TradeLiquidated",
      "type": "event"
    },
    {
      "anonymous": false,
      "inputs": [
        {
          "indexed": true,
          "name": "id",
          "type": "bytes32"
        }
      ],
      "name": "ChainlinkRequested",
      "type": "event"
    },
    {
      "anonymous": false,
      "inputs": [
        {
          "indexed": true,
          "name": "id",
          "type": "bytes32"
        }
      ],
      "name": "ChainlinkFulfilled",
      "type": "event"
    },
    {
      "anonymous": false,
      "inputs": [
        {
          "indexed": true,
          "name": "id",
          "type": "bytes32"
        }
      ],
      "name": "ChainlinkCancelled",
      "type": "event"
    },
    {
      "constant": true,
      "inputs": [],
      "name": "getChainlinkToken",
      "outputs": [
        {
          "name": "",
          "type": "address"
        }
      ],
      "payable": false,
      "stateMutability": "view",
      "type": "function"
    },
    {
      "constant": true,
      "inputs": [],
      "name": "getOracle",
      "outputs": [
        {
          "name": "",
          "type": "address"
        }
      ],
      "payable": false,
      "stateMutability": "view",
      "type": "function"
    },
    {
      "constant": false,
      "inputs": [],
      "name": "createRequest",
      "outputs": [
        {
          "name": "",
          "type": "bytes32"
        }
      ],
      "payable": false,
      "stateMutability": "nonpayable",
      "type": "function"
    },
    {
      "constant": false,
      "inputs": [
        {
          "name": "_oracle",
          "type": "address"
        },
        {
          "name": "_jobId",
          "type": "bytes32"
        },
        {
          "name": "_baseCurrency",
          "type": "string"
        },
        {
          "name": "_symbol",
          "type": "string"
        },
        {
          "name": "_times",
          "type": "int256"
        }
      ],
      "name": "createRequestTo",
      "outputs": [
        {
          "name": "requestId",
          "type": "bytes32"
        }
      ],
      "payable": false,
      "stateMutability": "nonpayable",
      "type": "function"
    },
    {
      "constant": false,
      "inputs": [
        {
          "name": "_requestId",
          "type": "bytes32"
        },
        {
          "name": "_rate",
          "type": "int256"
        }
      ],
      "name": "fulfill",
      "outputs": [],
      "payable": false,
      "stateMutability": "nonpayable",
      "type": "function"
    },
    {
      "constant": false,
      "inputs": [
        {
          "name": "_notional",
          "type": "uint256"
        },
        {
          "name": "_tradePeriodEnd",
          "type": "uint256"
        }
      ],
      "name": "initiateTrade",
      "outputs": [],
      "payable": true,
      "stateMutability": "payable",
      "type": "function"
    },
    {
      "constant": false,
      "inputs": [],
      "name": "acceptTrade",
      "outputs": [],
      "payable": true,
      "stateMutability": "payable",
      "type": "function"
    },
    {
      "constant": false,
      "inputs": [],
      "name": "updateRates",
      "outputs": [],
      "payable": false,
      "stateMutability": "nonpayable",
      "type": "function"
    },
    {
      "constant": true,
      "inputs": [],
      "name": "getNotional",
      "outputs": [
        {
          "name": "_notional",
          "type": "uint256"
        }
      ],
      "payable": false,
      "stateMutability": "view",
      "type": "function"
    },
    {
      "constant": true,
      "inputs": [],
      "name": "getTrade",
      "outputs": [
        {
          "name": "_notional",
          "type": "uint256"
        },
        {
          "name": "_currencyA",
          "type": "string"
        },
        {
          "name": "_currencyB",
          "type": "string"
        },
        {
          "name": "_counterparties",
          "type": "address[2]"
        },
        {
          "name": "_tradePeriodEnd",
          "type": "uint256"
        },
        {
          "name": "_tradePeriodStart",
          "type": "uint256"
        },
        {
          "name": "_rate",
          "type": "int256"
        },
        {
          "name": "_initialRate",
          "type": "int256"
        },
        {
          "name": "_accountCollateral",
          "type": "uint256[2]"
        }
      ],
      "payable": false,
      "stateMutability": "view",
      "type": "function"
    },
    {
      "constant": true,
      "inputs": [],
      "name": "getLinkBalance",
      "outputs": [
        {
          "name": "_balance",
          "type": "uint256"
        }
      ],
      "payable": false,
      "stateMutability": "view",
      "type": "function"
    }
  ],
  "bytecode": "0x60806040526001600455600a600755734a3fbbb385b5efeb4bc84a25aaadcd644bd09721600860006101000a81548173ffffffffffffffffffffffffffffffffffffffff021916908373ffffffffffffffffffffffffffffffffffffffff160217905550612710600e556000600f60006101000a81548160ff0219169083151502179055503480156200009157600080fd5b50604051620025d1380380620025d183398101806040528101908080519060200190929190805190602001909291908051820192919060200180518201929190602001805190602001909291908051906020019092919050505062000105866200021a640100000000026401000000009004565b6200011f856200025e640100000000026401000000009004565b83600960006002811015156200013157fe5b01908051906020019062000147929190620002a2565b5082600960016002811015156200015a57fe5b01908051906020019062000170929190620002a2565b5032600b60006002811015156200018357fe5b0160006101000a81548173ffffffffffffffffffffffffffffffffffffffff021916908373ffffffffffffffffffffffffffffffffffffffff16021790555081600d816000191690555080601660006101000a81548173ffffffffffffffffffffffffffffffffffffffff021916908373ffffffffffffffffffffffffffffffffffffffff16021790555050505050505062000351565b80600260006101000a81548173ffffffffffffffffffffffffffffffffffffffff021916908373ffffffffffffffffffffffffffffffffffffffff16021790555050565b80600360006101000a81548173ffffffffffffffffffffffffffffffffffffffff021916908373ffffffffffffffffffffffffffffffffffffffff16021790555050565b828054600181600116156101000203166002900490600052602060002090601f016020900481019282601f10620002e557805160ff191683800117855562000316565b8280016001018555821562000316579182015b8281111562000315578251825591602001919060010190620002f8565b5b50905062000325919062000329565b5090565b6200034e91905b808211156200034a57600081600090555060010162000330565b5090565b90565b61227080620003616000396000f3006080604052600436106100ba576000357c0100000000000000000000000000000000000000000000000000000000900463ffffffff168063165d35e1146100bf5780632c4e722e146101165780633c3821f41461014157806350c5f97514610158578063833b1fce1461018357806386bf92f7146101da578063995f789214610357578063bda71d041461045a578063c957907814610495578063c9f746a0146104c8578063e8aa31ab146104f2578063fa4cbc411461051d575b600080fd5b3480156100cb57600080fd5b506100d4610527565b604051808273ffffffffffffffffffffffffffffffffffffffff1673ffffffffffffffffffffffffffffffffffffffff16815260200191505060405180910390f35b34801561012257600080fd5b5061012b610536565b6040518082815260200191505060405180910390f35b34801561014d57600080fd5b5061015661053c565b005b34801561016457600080fd5b5061016d6105c1565b6040518082815260200191505060405180910390f35b34801561018f57600080fd5b506101986106c0565b604051808273ffffffffffffffffffffffffffffffffffffffff1673ffffffffffffffffffffffffffffffffffffffff16815260200191505060405180910390f35b3480156101e657600080fd5b506101ef6106cf565b604051808a8152602001806020018060200189600260200280838360005b8381101561022857808201518184015260208101905061020d565b5050505090500188815260200187815260200186815260200185815260200184600260200280838360005b8381101561026e578082015181840152602081019050610253565b5050505090500183810383528b818151815260200191508051906020019080838360005b838110156102ad578082015181840152602081019050610292565b50505050905090810190601f1680156102da5780820380516001836020036101000a031916815260200191505b5083810382528a818151815260200191508051906020019080838360005b838110156103135780820151818401526020810190506102f8565b50505050905090810190601f1680156103405780820380516001836020036101000a031916815260200191505b509b50505050505050505050505060405180910390f35b34801561036357600080fd5b5061043c600480360381019080803573ffffffffffffffffffffffffffffffffffffffff1690602001909291908035600019169060200190929190803590602001908201803590602001908080601f0160208091040260200160405190810160405280939291908181526020018383808284378201915050505050509192919290803590602001908201803590602001908080601f016020809104026020016040519081016040528093929190818152602001838380828437820191505050505050919291929080359060200190929190505050610928565b60405180826000191660001916815260200191505060405180910390f35b34801561046657600080fd5b50610493600480360381019080803560001916906020019092919080359060200190929190505050610abc565b005b3480156104a157600080fd5b506104aa610c86565b60405180826000191660001916815260200191505060405180910390f35b6104f06004803603810190808035906020019092919080359060200190929190505050610df7565b005b3480156104fe57600080fd5b50610507610fb1565b6040518082815260200191505060405180910390f35b610525610fbb565b005b6000610531611214565b905090565b60065481565b60006014541115156105b6576040517f08c379a00000000000000000000000000000000000000000000000000000000081526004018080602001828103825260128152602001807f54726164652079657420746f20626567696e000000000000000000000000000081525060200191505060405180910390fd5b6105be610c86565b50565b6000600860009054906101000a900473ffffffffffffffffffffffffffffffffffffffff1673ffffffffffffffffffffffffffffffffffffffff166370a08231306040518263ffffffff167c0100000000000000000000000000000000000000000000000000000000028152600401808273ffffffffffffffffffffffffffffffffffffffff1673ffffffffffffffffffffffffffffffffffffffff168152602001915050602060405180830381600087803b15801561068057600080fd5b505af1158015610694573d6000803e3d6000fd5b505050506040513d60208110156106aa57600080fd5b8101908080519060200190929190505050905090565b60006106ca61123e565b905090565b60006060806106dc61215e565b6000806000806106ea612180565b601354600960006002811015156106fd57fe5b016009600160028110151561070e57fe5b01600b6015546014546006546010546011878054600181600116156101000203166002900480601f0160208091040260200160405190810160405280929190818152602001828054600181600116156101000203166002900480156107b45780601f10610789576101008083540402835291602001916107b4565b820191906000526020600020905b81548152906001019060200180831161079757829003601f168201915b50505050509750868054600181600116156101000203166002900480601f0160208091040260200160405190810160405280929190818152602001828054600181600116156101000203166002900480156108505780601f1061082557610100808354040283529160200191610850565b820191906000526020600020905b81548152906001019060200180831161083357829003601f168201915b50505050509650856002806020026040519081016040528092919082600280156108c5576020028201915b8160009054906101000a900473ffffffffffffffffffffffffffffffffffffffff1673ffffffffffffffffffffffffffffffffffffffff168152602001906001019080831161087b575b5050505050955080600280602002604051908101604052809291908260028015610904576020028201915b8154815260200190600101908083116108f0575b50505050509050985098509850985098509850985098509850909192939495969798565b60006109326121a2565b610960863063bda71d047c010000000000000000000000000000000000000000000000000000000002611268565b90506109b36040805190810160405280600881526020017f636f7079506174680000000000000000000000000000000000000000000000008152506109a3611299565b8361134b9092919063ffffffff16565b6109fd6040805190810160405280600481526020017f6261736500000000000000000000000000000000000000000000000000000000815250868361134b9092919063ffffffff16565b610a476040805190810160405280600781526020017f73796d626f6c7300000000000000000000000000000000000000000000000000815250858361134b9092919063ffffffff16565b610a916040805190810160405280600581526020017f74696d6573000000000000000000000000000000000000000000000000000000815250848361137e9092919063ffffffff16565b610ab08782600a670de0b6b3a7640000811515610aaa57fe5b046113b1565b91505095945050505050565b8160056000826000191660001916815260200190815260200160002060009054906101000a900473ffffffffffffffffffffffffffffffffffffffff1673ffffffffffffffffffffffffffffffffffffffff163373ffffffffffffffffffffffffffffffffffffffff16141515610bc1576040517f08c379a00000000000000000000000000000000000000000000000000000000081526004018080602001828103825260288152602001807f536f75726365206d75737420626520746865206f7261636c65206f662074686581526020017f207265717565737400000000000000000000000000000000000000000000000081525060400191505060405180910390fd5b60056000826000191660001916815260200190815260200160002060006101000a81549073ffffffffffffffffffffffffffffffffffffffff021916905580600019167f7cc135e0cebb02c3480ae5d74d377283180a2601f8f644edf7987b009316c63a60405160405180910390a2600f60009054906101000a900460ff161515610c6d57816010819055506001600f60006101000a81548160ff021916908315150217905550610c7a565b610c796006548361173d565b5b81600681905550505050565b6000610df2610c936106c0565b600d5460096000600281101515610ca657fe5b018054600181600116156101000203166002900480601f016020809104026020016040519081016040528092919081815260200182805460018160011615610100020316600290048015610d3b5780601f10610d1057610100808354040283529160200191610d3b565b820191906000526020600020905b815481529060010190602001808311610d1e57829003601f168201915b505050505060096001600281101515610d5057fe5b018054600181600116156101000203166002900480601f016020809104026020016040519081016040528092919081815260200182805460018160011615610100020316600290048015610de55780601f10610dba57610100808354040283529160200191610de5565b820191906000526020600020905b815481529060010190602001808311610dc857829003601f168201915b5050505050600e54610928565b905090565b6000601354141515610e71576040517f08c379a00000000000000000000000000000000000000000000000000000000081526004018080602001828103825260168152602001807f5377617020616c726561647920696e697469617465640000000000000000000081525060200191505060405180910390fd5b60075482811515610e7e57fe5b043410151515610ef6576040517f08c379a00000000000000000000000000000000000000000000000000000000081526004018080602001828103825260178152602001807f496e73756666696369656e7420636f6c6c61746572616c00000000000000000081525060200191505060405180910390fd5b33600b6000600281101515610f0757fe5b0160006101000a81548173ffffffffffffffffffffffffffffffffffffffff021916908373ffffffffffffffffffffffffffffffffffffffff1602179055503460116000600281101515610f5757fe5b018190555081601381905550806015819055503373ffffffffffffffffffffffffffffffffffffffff167f46d9904db485b84e5c95c69a6077d6a5dbb80b6c973644ee28485a2a144d317260405160405180910390a25050565b6000601354905090565b6000601354111515611035576040517f08c379a00000000000000000000000000000000000000000000000000000000081526004018080602001828103825260168152602001807f53776170206e6f742079657420696e697469617465640000000000000000000081525060200191505060405180910390fd5b60075460135481151561104457fe5b0434101515156110bc576040517f08c379a00000000000000000000000000000000000000000000000000000000081526004018080602001828103825260178152602001807f496e73756666696369656e7420636f6c6c61746572616c00000000000000000081525060200191505060405180910390fd5b33600b60016002811015156110cd57fe5b0160006101000a81548173ffffffffffffffffffffffffffffffffffffffff021916908373ffffffffffffffffffffffffffffffffffffffff160217905550346011600160028110151561111d57fe5b018190555042601481905550601660009054906101000a900473ffffffffffffffffffffffffffffffffffffffff1673ffffffffffffffffffffffffffffffffffffffff166374531d516040518163ffffffff167c0100000000000000000000000000000000000000000000000000000000028152600401600060405180830381600087803b1580156111af57600080fd5b505af11580156111c3573d6000803e3d6000fd5b505050503373ffffffffffffffffffffffffffffffffffffffff167fca0e32acd07d090741375861718cf6f063c6daec3dac8d9fb175248e52ee7d7b60405160405180910390a261121261053c565b565b6000600260009054906101000a900473ffffffffffffffffffffffffffffffffffffffff16905090565b6000600360009054906101000a900473ffffffffffffffffffffffffffffffffffffffff16905090565b6112706121a2565b6112786121a2565b61128f858585846118fa909392919063ffffffff16565b9150509392505050565b6060600960016002811015156112ab57fe5b0160405160200180807f72617465732e0000000000000000000000000000000000000000000000000000815250600601828054600181600116156101000203166002900480156113325780601f10611310576101008083540402835291820191611332565b820191906000526020600020905b81548152906001019060200180831161131e575b5050915050604051602081830303815290604052905090565b6113628284608001516119b490919063ffffffff16565b6113798184608001516119b490919063ffffffff16565b505050565b6113958284608001516119b490919063ffffffff16565b6113ac8184608001516119d990919063ffffffff16565b505050565b600030600454604051602001808373ffffffffffffffffffffffffffffffffffffffff1673ffffffffffffffffffffffffffffffffffffffff166c01000000000000000000000000028152601401828152602001925050506040516020818303038152906040526040518082805190602001908083835b60208310151561144d5780518252602082019150602081019050602083039250611428565b6001836020036101000a038019825116818451168082178552505050505050905001915050604051809103902090506004548360600181815250508360056000836000191660001916815260200190815260200160002060006101000a81548173ffffffffffffffffffffffffffffffffffffffff021916908373ffffffffffffffffffffffffffffffffffffffff16021790555080600019167fb5e6e01e79f91267dc17b4e6314d5d4d03593d2ceee0fbb452b750bd70ea5af960405160405180910390a2600260009054906101000a900473ffffffffffffffffffffffffffffffffffffffff1673ffffffffffffffffffffffffffffffffffffffff16634000aea0858461155c87611a27565b6040518463ffffffff167c0100000000000000000000000000000000000000000000000000000000028152600401808473ffffffffffffffffffffffffffffffffffffffff1673ffffffffffffffffffffffffffffffffffffffff16815260200183815260200180602001828103825283818151815260200191508051906020019080838360005b838110156115ff5780820151818401526020810190506115e4565b50505050905090810190601f16801561162c5780820380516001836020036101000a031916815260200191505b50945050505050602060405180830381600087803b15801561164d57600080fd5b505af1158015611661573d6000803e3d6000fd5b505050506040513d602081101561167757600080fd5b81019080805190602001909291905050501515611722576040517f08c379a00000000000000000000000000000000000000000000000000000000081526004018080602001828103825260238152602001807f756e61626c6520746f207472616e73666572416e6443616c6c20746f206f726181526020017f636c65000000000000000000000000000000000000000000000000000000000081525060400191505060405180910390fd5b60016004600082825401925050819055508090509392505050565b600080828412156117ee578383039150600e54826013540281151561175e57fe5b049050806011600060028110151561177257fe5b0154016011600060028110151561178557fe5b0181905550806011600160028110151561179b57fe5b015403601160016002811015156117ae57fe5b01819055506002600754026013548115156117c557fe5b04601160016002811015156117d657fe5b015410156117e9576117e86001611c52565b5b61189d565b828414156117fb576118f4565b8284039150600e54826013540281151561181157fe5b049050806011600060028110151561182557fe5b0154036011600060028110151561183857fe5b0181905550806011600160028110151561184e57fe5b0154016011600160028110151561186157fe5b018190555060026007540260135481151561187857fe5b046011600060028110151561188957fe5b0154101561189c5761189b6000611c52565b5b5b3373ffffffffffffffffffffffffffffffffffffffff167f9fdaccf4ce37d30b077a90a79012d42faee79639f7272c9d7d6f0b5947972c8b8585604051808381526020018281526020019250505060405180910390a25b50505050565b6119026121a2565b6119128560800151610100611d94565b50838560000190600019169081600019168152505082856020019073ffffffffffffffffffffffffffffffffffffffff16908173ffffffffffffffffffffffffffffffffffffffff16815250508185604001907bffffffffffffffffffffffffffffffffffffffffffffffffffffffff191690817bffffffffffffffffffffffffffffffffffffffffffffffffffffffff191681525050849050949350505050565b6119c18260038351611dee565b6119d48183611f4c90919063ffffffff16565b505050565b6000811215156119f4576119ef82600083611dee565b611a23565b611a22826001837fffffffffffffffffffffffffffffffffffffffffffffffffffffffffffffffff03611dee565b5b5050565b6060600360009054906101000a900473ffffffffffffffffffffffffffffffffffffffff1673ffffffffffffffffffffffffffffffffffffffff16634042994690507c01000000000000000000000000000000000000000000000000000000000260008084600001518560200151866040015187606001516001896080015160000151604051602401808973ffffffffffffffffffffffffffffffffffffffff1673ffffffffffffffffffffffffffffffffffffffff16815260200188815260200187600019166000191681526020018673ffffffffffffffffffffffffffffffffffffffff1673ffffffffffffffffffffffffffffffffffffffff168152602001857bffffffffffffffffffffffffffffffffffffffffffffffffffffffff19167bffffffffffffffffffffffffffffffffffffffffffffffffffffffff1916815260200184815260200183815260200180602001828103825283818151815260200191508051906020019080838360005b83811015611bb5578082015181840152602081019050611b9a565b50505050905090810190601f168015611be25780820380516001836020036101000a031916815260200191505b509950505050505050505050604051602081830303815290604052907bffffffffffffffffffffffffffffffffffffffffffffffffffffffff19166020820180517bffffffffffffffffffffffffffffffffffffffffffffffffffffffff83818316178352505050509050919050565b60006001821415611cb65760116001600281101515611c6d57fe5b01549050600060116001600281101515611c8357fe5b01819055508060116000600281101515611c9957fe5b01540160116000600281101515611cac57fe5b0181905550611d0b565b60116000600281101515611cc657fe5b01549050600060116000600281101515611cdc57fe5b01819055508060116001600281101515611cf257fe5b01540160116001600281101515611d0557fe5b01819055505b42601581905550600b82600281101515611d2157fe5b0160009054906101000a900473ffffffffffffffffffffffffffffffffffffffff1673ffffffffffffffffffffffffffffffffffffffff167f8cd8a6ee40f6b5419c6270f84b104c9bae0ec694b869040b1c539ab73ff8a214426040518082815260200191505060405180910390a25050565b611d9c612210565b6000602083811515611daa57fe5b06141515611dc757602082811515611dbe57fe5b06602003820191505b81836020018181525050604051808452600081528281016020016040525082905092915050565b601781111515611e2057611e1a8160058460ff169060020a0260ff161784611f6e90919063ffffffff16565b50611f47565b60ff81111515611e6757611e4a601860058460ff169060020a021784611f6e90919063ffffffff16565b50611e6181600185611f8e9092919063ffffffff16565b50611f46565b61ffff81111515611eaf57611e92601960058460ff169060020a021784611f6e90919063ffffffff16565b50611ea981600285611f8e9092919063ffffffff16565b50611f45565b63ffffffff81111515611ef957611edc601a60058460ff169060020a021784611f6e90919063ffffffff16565b50611ef381600485611f8e9092919063ffffffff16565b50611f44565b67ffffffffffffffff81111515611f4357611f2a601b60058460ff169060020a021784611f6e90919063ffffffff16565b50611f4181600885611f8e9092919063ffffffff16565b505b5b5b5b5b505050565b611f54612210565b611f6683846000015151848551611fb0565b905092915050565b611f76612210565b611f86838460000151518461206d565b905092915050565b611f96612210565b611fa78485600001515185856120bd565b90509392505050565b611fb8612210565b600080600085518511151515611fcd57600080fd5b87602001518588011115611ff857611ff7886002611ff18b602001518b8a0161211e565b0261213a565b5b8751805188602083010194508089880111156120145788870182525b60208801935050505b602085101515612042578151835260208301925060208201915060208503945061201d565b6001856020036101000a03905080198251168184511681811785525050879350505050949350505050565b612075612210565b8360200151831015156120945761209384600286602001510261213a565b5b83518051602085830101848153818614156120b0576001820183525b5050508390509392505050565b6120c5612210565b6000856020015185840111156120e5576120e48660028786010261213a565b5b6001836101000a03905085518386820101858319825116178152815185880111156121105784870182525b505085915050949350505050565b60008183111561213057829050612134565b8190505b92915050565b60608260000151905061214d8383611d94565b506121588382611f4c565b50505050565b6040805190810160405280600290602082028038833980820191505090505090565b6040805190810160405280600290602082028038833980820191505090505090565b60c06040519081016040528060008019168152602001600073ffffffffffffffffffffffffffffffffffffffff16815260200160007bffffffffffffffffffffffffffffffffffffffffffffffffffffffff191681526020016000815260200161220a61222a565b81525090565b604080519081016040528060608152602001600081525090565b6040805190810160405280606081526020016000815250905600a165627a7a7230582038ba4e5af0c9bf7d988d85fc4d3710814049350d1fda74bc70778ef6b2b336150029",
  "source": "pragma solidity 0.4.24;\n\nimport \"chainlink/contracts/ChainlinkClient.sol\";\n\ninterface ForexTradeFactoryContract {\n    function registerCounterparty();\n}\n\ninterface ERC20 {\n  function balanceOf(address) returns(uint);\n}\n\n// add safemath\ncontract ForexTrade is ChainlinkClient {\n    uint256 private constant ORACLE_PAYMENT = LINK / 10;\n    int256 public rate;\n\n    uint256 LEVERAGE = 10;\n\n    address LINK_TOKEN = 0x4a3FBbB385b5eFEB4BC84a25AaADcD644Bd09721;\n\n    /* Core */\n    string[2] currencies; // [\"USD\", \"EUR\"]\n    address[2] counterparties; // [\"0xAlice\", \"0xBob\"]\n    // Alice is betting on USD gaining value\n\n    bytes32 jobId;\n    int256 times = 10000; // multiply oracle result by 10,000: 1.345% = 13450;\n    bool ratesInitiated = false;\n    int initialRate;\n\n    uint256[2] accountCollateral; // initial values >= notional / LEVERAGE\n\n    uint256 notional; // wei\n    uint256 tradePeriodStart; // timestamp\n    uint256 tradePeriodEnd; // timestamp\n\n    event TradeInitiated(address indexed initiator);\n    event TradeAccepted(address indexed acceptor);\n    event TradeRepriced(address indexed sender, int oldRate, int newRate);\n    event TradeLiquidated(address indexed liquidated, uint timestamp);\n\n    // ForexTradeFactoryContract factoryContract;\n    address factoryAddress;\n\n    constructor(\n        address _link,\n        address _oracle,\n        string _currencyA,\n        string _currencyB,\n        bytes32 _jobId,\n        address _factoryAddress\n    ) public {\n        setChainlinkToken(_link);\n        setChainlinkOracle(_oracle);\n        currencies[0] = _currencyA;\n        currencies[1] = _currencyB;\n        counterparties[0] = tx.origin;\n        jobId = _jobId;\n\n        factoryAddress = _factoryAddress;\n        // factoryContract = ForexTradeFactoryContract(\n        //     _factoryAddress\n        // );\n    }\n\n    /* Chainlink functions */\n    function getChainlinkToken() public view returns (address) {\n        return chainlinkTokenAddress();\n    }\n\n    function getOracle() public view returns (address) {\n        return chainlinkOracleAddress();\n    }\n\n    function createRequest() public returns (bytes32) {\n        return\n            createRequestTo(\n                getOracle(),\n                jobId,\n                currencies[0],\n                currencies[1],\n                times\n            );\n    }\n\n    function createRequestTo(\n        address _oracle,\n        bytes32 _jobId,\n        string _baseCurrency, // USD\n        string _symbol, // EUR\n        int256 _times\n    ) public returns (bytes32 requestId) {\n        Chainlink.Request memory req = buildChainlinkRequest(\n            _jobId,\n            this,\n            this.fulfill.selector\n        );\n        req.add(\"copyPath\", getCopyPath());\n        req.add(\"base\", _baseCurrency);\n        req.add(\"symbols\", _symbol);\n        req.addInt(\"times\", _times);\n        requestId = sendChainlinkRequestTo(_oracle, req, ORACLE_PAYMENT);\n    }\n\n    function getCopyPath() internal view returns (string) {\n        return string(abi.encodePacked(\"rates.\", currencies[1]));\n    }\n\n    function fulfill(bytes32 _requestId, int256 _rate)\n        public\n        recordChainlinkFulfillment(_requestId)\n    {\n        if (!ratesInitiated) {\n            initialRate = _rate;\n            ratesInitiated = true;\n        } else {\n            // (oldRate, newRate)\n            runRepricing(rate, _rate);\n        }\n        rate = _rate;\n    }\n\n    function runRepricing(int256 oldRate, int256 newRate) private {\n        // EXAMPLE:\n        // currencies = [\"USD\", \"EUR\"]\n        // counterparties = [\"addr0\", \"addr1\"]\n        // notional = 1,000,000\n        // accountCollateral pre = [200000, 200000]\n        // oldRate: USD/EUR = 0.9000 * 10000 = 9000\n        // newRate: USD/EUR = 0.9200 * 10000 = 9200 (USD appreciated in this ex.)\n\n        uint256 changeInRate;\n        uint256 changeInValue;\n\n        if (oldRate < newRate) {\n            // currencies[0] is the currency that appreciated in this condition\n            changeInRate = uint256(newRate) - uint256(oldRate); // 9200 - 9000 = 200\n            changeInValue = (notional * changeInRate) / uint256(times); // 1000000 * 200 / 10000 = 20000\n            accountCollateral[0] = accountCollateral[0] + changeInValue;\n            accountCollateral[1] = accountCollateral[1] - changeInValue;\n            /* accountCollateral post TX = [220000, 180000] */\n\n            if(accountCollateral[1] < notional / (LEVERAGE * 2)){ // less than 5%\n              liquidate(1);\n            }\n        } else if (oldRate == newRate) {\n            return;\n        } else {\n            changeInRate = uint256(oldRate) - uint256(newRate);\n            changeInValue = (notional * changeInRate) / uint256(times);\n            accountCollateral[0] = accountCollateral[0] - changeInValue;\n            accountCollateral[1] = accountCollateral[1] + changeInValue;\n\n            if(accountCollateral[0] < notional / (LEVERAGE * 2)){\n              liquidate(0);\n            }\n        }\n\n        emit TradeRepriced(msg.sender, oldRate, newRate);\n    }\n\n    function liquidate(uint liquidatedAccount) private {\n        uint collateralValue;\n\n        if(liquidatedAccount == 1){\n          collateralValue = accountCollateral[1];\n          accountCollateral[1] = 0;\n          accountCollateral[0] = accountCollateral[0] + collateralValue;\n        } else {\n          collateralValue = accountCollateral[0];\n          accountCollateral[0] = 0;\n          accountCollateral[1] = accountCollateral[1] + collateralValue;\n        }\n\n        tradePeriodEnd = block.timestamp;\n        TradeLiquidated(counterparties[liquidatedAccount], block.timestamp);\n    }\n\n    function initiateTrade(uint256 _notional, uint256 _tradePeriodEnd)\n        public\n        payable\n        isNotInitiated\n    {\n        require(msg.value >= _notional / LEVERAGE, \"Insufficient collateral\");\n\n        counterparties[0] = msg.sender;\n        accountCollateral[0] = msg.value;\n        notional = _notional;\n\n        tradePeriodEnd = _tradePeriodEnd;\n        emit TradeInitiated(msg.sender);\n    }\n\n    modifier isNotInitiated() {\n        require(notional == 0, \"Swap already initiated\");\n        _;\n    }\n\n    modifier isInitiated() {\n        require(notional > 0, \"Swap not yet initiated\");\n        _;\n    }\n\n    // Contract must be funded with LINK for this function to run\n    function acceptTrade() public payable isInitiated {\n        require(msg.value >= notional / LEVERAGE, \"Insufficient collateral\");\n\n        counterparties[1] = msg.sender;\n        accountCollateral[1] = msg.value;\n\n        tradePeriodStart = block.timestamp;\n        ForexTradeFactoryContract(factoryAddress).registerCounterparty();\n\n        emit TradeAccepted(msg.sender);\n        updateRates();\n    }\n\n    // Contract must be funded with LINK for this function to run\n    function updateRates() public {\n        require(tradePeriodStart > 0, \"Trade yet to begin\");\n        createRequest();\n    }\n\n    function getNotional() view returns (uint256 _notional) {\n        return notional;\n    }\n\n    function getTrade()\n        view\n        returns (\n            uint256 _notional,\n            string _currencyA,\n            string _currencyB,\n            address[2] _counterparties,\n            uint256 _tradePeriodEnd,\n            uint256 _tradePeriodStart,\n            int256 _rate,\n            int256 _initialRate,\n            uint256[2] _accountCollateral\n        )\n    {\n        return (\n            notional,\n            currencies[0],\n            currencies[1],\n            counterparties,\n            tradePeriodEnd,\n            tradePeriodStart,\n            rate,\n            initialRate,\n            accountCollateral\n        );\n    }\n\n    function getLinkBalance() view returns (uint _balance){\n      return ERC20(LINK_TOKEN).balanceOf(address(this));\n    }\n}\n",
  "sourcePath": "/Users/michaeljcohen/Desktop/projects/forex-trader/contracts/ForexTrade.sol",
  "compiler": {
    "name": "solc",
    "version": "0.4.24+commit.e67f0147.Emscripten.clang"
  },
  "schemaVersion": "3.0.2",
  "updatedAt": "2019-12-11T02:35:24.091Z",
  "devdoc": {
    "methods": {}
  },
  "userdoc": {
    "methods": {}
  }
}