{
  "contractName": "ForexTradeFactory",
  "abi": [
    {
      "inputs": [
        {
          "name": "_jobId",
          "type": "bytes32"
        }
      ],
      "payable": false,
      "stateMutability": "nonpayable",
      "type": "constructor",
      "signature": "constructor"
    },
    {
      "anonymous": false,
      "inputs": [
        {
          "indexed": true,
          "name": "creator",
          "type": "address"
        },
        {
          "indexed": false,
          "name": "tradeContract",
          "type": "address"
        }
      ],
      "name": "TradeCreated",
      "type": "event",
      "signature": "0xd14eab39dd774c930659f157c823ce6b5effa656ad2ea80bd0cbcbd59e3ddeae"
    },
    {
      "anonymous": false,
      "inputs": [
        {
          "indexed": true,
          "name": "counterparty",
          "type": "address"
        },
        {
          "indexed": false,
          "name": "tradeContract",
          "type": "address"
        }
      ],
      "name": "CounterpartyRegistered",
      "type": "event",
      "signature": "0xafdf71af6f6b8feb204514fb5c980a948606898737f6b6378fd431eb841a1142"
    },
    {
      "constant": false,
      "inputs": [
        {
          "name": "_currencyA",
          "type": "string"
        },
        {
          "name": "_currencyB",
          "type": "string"
        }
      ],
      "name": "createTrade",
      "outputs": [],
      "payable": false,
      "stateMutability": "nonpayable",
      "type": "function",
      "signature": "0xe23b23f6"
    },
    {
      "constant": false,
      "inputs": [],
      "name": "registerCounterparty",
      "outputs": [],
      "payable": false,
      "stateMutability": "nonpayable",
      "type": "function",
      "signature": "0x74531d51"
    },
    {
      "constant": true,
      "inputs": [
        {
          "name": "_counterparty",
          "type": "address"
        }
      ],
      "name": "getTradesByAddress",
      "outputs": [
        {
          "name": "_trades",
          "type": "address[]"
        }
      ],
      "payable": false,
      "stateMutability": "view",
      "type": "function",
      "signature": "0xb4144b79"
    }
  ],
  "bytecode": "0x60806040527320fe562d797a42dcb3399062ae9546cd06f63280600260006101000a81548173ffffffffffffffffffffffffffffffffffffffff021916908373ffffffffffffffffffffffffffffffffffffffff160217905550734a3fbbb385b5efeb4bc84a25aaadcd644bd09721600360006101000a81548173ffffffffffffffffffffffffffffffffffffffff021916908373ffffffffffffffffffffffffffffffffffffffff1602179055503480156100ba57600080fd5b50604051602080612ee183398101806040528101908080519060200190929190505050806004816000191690555050612de9806100f86000396000f300608060405260043610610057576000357c0100000000000000000000000000000000000000000000000000000000900463ffffffff16806374531d511461005c578063b4144b7914610073578063e23b23f61461010b575b600080fd5b34801561006857600080fd5b506100716101ba565b005b34801561007f57600080fd5b506100b4600480360381019080803573ffffffffffffffffffffffffffffffffffffffff1690602001909291905050506103a0565b6040518080602001828103825283818151815260200191508051906020019060200280838360005b838110156100f75780820151818401526020810190506100dc565b505050509050019250505060405180910390f35b34801561011757600080fd5b506101b8600480360381019080803590602001908201803590602001908080601f0160208091040260200160405190810160405280939291908181526020018383808284378201915050505050509192919290803590602001908201803590602001908080601f016020809104026020016040519081016040528093929190818152602001838380828437820191505050505050919291929050505061046c565b005b60011515600160003373ffffffffffffffffffffffffffffffffffffffff1673ffffffffffffffffffffffffffffffffffffffff16815260200190815260200160002060009054906101000a900460ff161515141515610282576040517f08c379a00000000000000000000000000000000000000000000000000000000081526004018080602001828103825260108152602001807f496e76616c696420636f6e74726163740000000000000000000000000000000081525060200191505060405180910390fd5b6000803273ffffffffffffffffffffffffffffffffffffffff1673ffffffffffffffffffffffffffffffffffffffff1681526020019081526020016000203390806001815401808255809150509060018203906000526020600020016000909192909190916101000a81548173ffffffffffffffffffffffffffffffffffffffff021916908373ffffffffffffffffffffffffffffffffffffffff160217905550503273ffffffffffffffffffffffffffffffffffffffff167fafdf71af6f6b8feb204514fb5c980a948606898737f6b6378fd431eb841a114233604051808273ffffffffffffffffffffffffffffffffffffffff1673ffffffffffffffffffffffffffffffffffffffff16815260200191505060405180910390a2565b60606000808373ffffffffffffffffffffffffffffffffffffffff1673ffffffffffffffffffffffffffffffffffffffff16815260200190815260200160002080548060200260200160405190810160405280929190818152602001828054801561046057602002820191906000526020600020905b8160009054906101000a900473ffffffffffffffffffffffffffffffffffffffff1673ffffffffffffffffffffffffffffffffffffffff1681526020019060010190808311610416575b50505050509050919050565b6000600260009054906101000a900473ffffffffffffffffffffffffffffffffffffffff16600360009054906101000a900473ffffffffffffffffffffffffffffffffffffffff168484600454306104c26107dc565b808773ffffffffffffffffffffffffffffffffffffffff1673ffffffffffffffffffffffffffffffffffffffff1681526020018673ffffffffffffffffffffffffffffffffffffffff1673ffffffffffffffffffffffffffffffffffffffff168152602001806020018060200185600019166000191681526020018473ffffffffffffffffffffffffffffffffffffffff1673ffffffffffffffffffffffffffffffffffffffff168152602001838103835287818151815260200191508051906020019080838360005b838110156105a757808201518184015260208101905061058c565b50505050905090810190601f1680156105d45780820380516001836020036101000a031916815260200191505b50838103825286818151815260200191508051906020019080838360005b8381101561060d5780820151818401526020810190506105f2565b50505050905090810190601f16801561063a5780820380516001836020036101000a031916815260200191505b5098505050505050505050604051809103906000f080158015610661573d6000803e3d6000fd5b5090506000803373ffffffffffffffffffffffffffffffffffffffff1673ffffffffffffffffffffffffffffffffffffffff1681526020019081526020016000208190806001815401808255809150509060018203906000526020600020016000909192909190916101000a81548173ffffffffffffffffffffffffffffffffffffffff021916908373ffffffffffffffffffffffffffffffffffffffff1602179055505060018060008373ffffffffffffffffffffffffffffffffffffffff1673ffffffffffffffffffffffffffffffffffffffff16815260200190815260200160002060006101000a81548160ff0219169083151502179055503373ffffffffffffffffffffffffffffffffffffffff167fd14eab39dd774c930659f157c823ce6b5effa656ad2ea80bd0cbcbd59e3ddeae82604051808273ffffffffffffffffffffffffffffffffffffffff1673ffffffffffffffffffffffffffffffffffffffff16815260200191505060405180910390a2505050565b6040516125d1806107ed83390190560060806040526001600455600a600755734a3fbbb385b5efeb4bc84a25aaadcd644bd09721600860006101000a81548173ffffffffffffffffffffffffffffffffffffffff021916908373ffffffffffffffffffffffffffffffffffffffff160217905550612710600e556000600f60006101000a81548160ff0219169083151502179055503480156200009157600080fd5b50604051620025d1380380620025d183398101806040528101908080519060200190929190805190602001909291908051820192919060200180518201929190602001805190602001909291908051906020019092919050505062000105866200021a640100000000026401000000009004565b6200011f856200025e640100000000026401000000009004565b83600960006002811015156200013157fe5b01908051906020019062000147929190620002a2565b5082600960016002811015156200015a57fe5b01908051906020019062000170929190620002a2565b5032600b60006002811015156200018357fe5b0160006101000a81548173ffffffffffffffffffffffffffffffffffffffff021916908373ffffffffffffffffffffffffffffffffffffffff16021790555081600d816000191690555080601660006101000a81548173ffffffffffffffffffffffffffffffffffffffff021916908373ffffffffffffffffffffffffffffffffffffffff16021790555050505050505062000351565b80600260006101000a81548173ffffffffffffffffffffffffffffffffffffffff021916908373ffffffffffffffffffffffffffffffffffffffff16021790555050565b80600360006101000a81548173ffffffffffffffffffffffffffffffffffffffff021916908373ffffffffffffffffffffffffffffffffffffffff16021790555050565b828054600181600116156101000203166002900490600052602060002090601f016020900481019282601f10620002e557805160ff191683800117855562000316565b8280016001018555821562000316579182015b8281111562000315578251825591602001919060010190620002f8565b5b50905062000325919062000329565b5090565b6200034e91905b808211156200034a57600081600090555060010162000330565b5090565b90565b61227080620003616000396000f3006080604052600436106100ba576000357c0100000000000000000000000000000000000000000000000000000000900463ffffffff168063165d35e1146100bf5780632c4e722e146101165780633c3821f41461014157806350c5f97514610158578063833b1fce1461018357806386bf92f7146101da578063995f789214610357578063bda71d041461045a578063c957907814610495578063c9f746a0146104c8578063e8aa31ab146104f2578063fa4cbc411461051d575b600080fd5b3480156100cb57600080fd5b506100d4610527565b604051808273ffffffffffffffffffffffffffffffffffffffff1673ffffffffffffffffffffffffffffffffffffffff16815260200191505060405180910390f35b34801561012257600080fd5b5061012b610536565b6040518082815260200191505060405180910390f35b34801561014d57600080fd5b5061015661053c565b005b34801561016457600080fd5b5061016d6105c1565b6040518082815260200191505060405180910390f35b34801561018f57600080fd5b506101986106c0565b604051808273ffffffffffffffffffffffffffffffffffffffff1673ffffffffffffffffffffffffffffffffffffffff16815260200191505060405180910390f35b3480156101e657600080fd5b506101ef6106cf565b604051808a8152602001806020018060200189600260200280838360005b8381101561022857808201518184015260208101905061020d565b5050505090500188815260200187815260200186815260200185815260200184600260200280838360005b8381101561026e578082015181840152602081019050610253565b5050505090500183810383528b818151815260200191508051906020019080838360005b838110156102ad578082015181840152602081019050610292565b50505050905090810190601f1680156102da5780820380516001836020036101000a031916815260200191505b5083810382528a818151815260200191508051906020019080838360005b838110156103135780820151818401526020810190506102f8565b50505050905090810190601f1680156103405780820380516001836020036101000a031916815260200191505b509b50505050505050505050505060405180910390f35b34801561036357600080fd5b5061043c600480360381019080803573ffffffffffffffffffffffffffffffffffffffff1690602001909291908035600019169060200190929190803590602001908201803590602001908080601f0160208091040260200160405190810160405280939291908181526020018383808284378201915050505050509192919290803590602001908201803590602001908080601f016020809104026020016040519081016040528093929190818152602001838380828437820191505050505050919291929080359060200190929190505050610928565b60405180826000191660001916815260200191505060405180910390f35b34801561046657600080fd5b50610493600480360381019080803560001916906020019092919080359060200190929190505050610abc565b005b3480156104a157600080fd5b506104aa610c86565b60405180826000191660001916815260200191505060405180910390f35b6104f06004803603810190808035906020019092919080359060200190929190505050610df7565b005b3480156104fe57600080fd5b50610507610fb1565b6040518082815260200191505060405180910390f35b610525610fbb565b005b6000610531611214565b905090565b60065481565b60006014541115156105b6576040517f08c379a00000000000000000000000000000000000000000000000000000000081526004018080602001828103825260128152602001807f54726164652079657420746f20626567696e000000000000000000000000000081525060200191505060405180910390fd5b6105be610c86565b50565b6000600860009054906101000a900473ffffffffffffffffffffffffffffffffffffffff1673ffffffffffffffffffffffffffffffffffffffff166370a08231306040518263ffffffff167c0100000000000000000000000000000000000000000000000000000000028152600401808273ffffffffffffffffffffffffffffffffffffffff1673ffffffffffffffffffffffffffffffffffffffff168152602001915050602060405180830381600087803b15801561068057600080fd5b505af1158015610694573d6000803e3d6000fd5b505050506040513d60208110156106aa57600080fd5b8101908080519060200190929190505050905090565b60006106ca61123e565b905090565b60006060806106dc61215e565b6000806000806106ea612180565b601354600960006002811015156106fd57fe5b016009600160028110151561070e57fe5b01600b6015546014546006546010546011878054600181600116156101000203166002900480601f0160208091040260200160405190810160405280929190818152602001828054600181600116156101000203166002900480156107b45780601f10610789576101008083540402835291602001916107b4565b820191906000526020600020905b81548152906001019060200180831161079757829003601f168201915b50505050509750868054600181600116156101000203166002900480601f0160208091040260200160405190810160405280929190818152602001828054600181600116156101000203166002900480156108505780601f1061082557610100808354040283529160200191610850565b820191906000526020600020905b81548152906001019060200180831161083357829003601f168201915b50505050509650856002806020026040519081016040528092919082600280156108c5576020028201915b8160009054906101000a900473ffffffffffffffffffffffffffffffffffffffff1673ffffffffffffffffffffffffffffffffffffffff168152602001906001019080831161087b575b5050505050955080600280602002604051908101604052809291908260028015610904576020028201915b8154815260200190600101908083116108f0575b50505050509050985098509850985098509850985098509850909192939495969798565b60006109326121a2565b610960863063bda71d047c010000000000000000000000000000000000000000000000000000000002611268565b90506109b36040805190810160405280600881526020017f636f7079506174680000000000000000000000000000000000000000000000008152506109a3611299565b8361134b9092919063ffffffff16565b6109fd6040805190810160405280600481526020017f6261736500000000000000000000000000000000000000000000000000000000815250868361134b9092919063ffffffff16565b610a476040805190810160405280600781526020017f73796d626f6c7300000000000000000000000000000000000000000000000000815250858361134b9092919063ffffffff16565b610a916040805190810160405280600581526020017f74696d6573000000000000000000000000000000000000000000000000000000815250848361137e9092919063ffffffff16565b610ab08782600a670de0b6b3a7640000811515610aaa57fe5b046113b1565b91505095945050505050565b8160056000826000191660001916815260200190815260200160002060009054906101000a900473ffffffffffffffffffffffffffffffffffffffff1673ffffffffffffffffffffffffffffffffffffffff163373ffffffffffffffffffffffffffffffffffffffff16141515610bc1576040517f08c379a00000000000000000000000000000000000000000000000000000000081526004018080602001828103825260288152602001807f536f75726365206d75737420626520746865206f7261636c65206f662074686581526020017f207265717565737400000000000000000000000000000000000000000000000081525060400191505060405180910390fd5b60056000826000191660001916815260200190815260200160002060006101000a81549073ffffffffffffffffffffffffffffffffffffffff021916905580600019167f7cc135e0cebb02c3480ae5d74d377283180a2601f8f644edf7987b009316c63a60405160405180910390a2600f60009054906101000a900460ff161515610c6d57816010819055506001600f60006101000a81548160ff021916908315150217905550610c7a565b610c796006548361173d565b5b81600681905550505050565b6000610df2610c936106c0565b600d5460096000600281101515610ca657fe5b018054600181600116156101000203166002900480601f016020809104026020016040519081016040528092919081815260200182805460018160011615610100020316600290048015610d3b5780601f10610d1057610100808354040283529160200191610d3b565b820191906000526020600020905b815481529060010190602001808311610d1e57829003601f168201915b505050505060096001600281101515610d5057fe5b018054600181600116156101000203166002900480601f016020809104026020016040519081016040528092919081815260200182805460018160011615610100020316600290048015610de55780601f10610dba57610100808354040283529160200191610de5565b820191906000526020600020905b815481529060010190602001808311610dc857829003601f168201915b5050505050600e54610928565b905090565b6000601354141515610e71576040517f08c379a00000000000000000000000000000000000000000000000000000000081526004018080602001828103825260168152602001807f5377617020616c726561647920696e697469617465640000000000000000000081525060200191505060405180910390fd5b60075482811515610e7e57fe5b043410151515610ef6576040517f08c379a00000000000000000000000000000000000000000000000000000000081526004018080602001828103825260178152602001807f496e73756666696369656e7420636f6c6c61746572616c00000000000000000081525060200191505060405180910390fd5b33600b6000600281101515610f0757fe5b0160006101000a81548173ffffffffffffffffffffffffffffffffffffffff021916908373ffffffffffffffffffffffffffffffffffffffff1602179055503460116000600281101515610f5757fe5b018190555081601381905550806015819055503373ffffffffffffffffffffffffffffffffffffffff167f46d9904db485b84e5c95c69a6077d6a5dbb80b6c973644ee28485a2a144d317260405160405180910390a25050565b6000601354905090565b6000601354111515611035576040517f08c379a00000000000000000000000000000000000000000000000000000000081526004018080602001828103825260168152602001807f53776170206e6f742079657420696e697469617465640000000000000000000081525060200191505060405180910390fd5b60075460135481151561104457fe5b0434101515156110bc576040517f08c379a00000000000000000000000000000000000000000000000000000000081526004018080602001828103825260178152602001807f496e73756666696369656e7420636f6c6c61746572616c00000000000000000081525060200191505060405180910390fd5b33600b60016002811015156110cd57fe5b0160006101000a81548173ffffffffffffffffffffffffffffffffffffffff021916908373ffffffffffffffffffffffffffffffffffffffff160217905550346011600160028110151561111d57fe5b018190555042601481905550601660009054906101000a900473ffffffffffffffffffffffffffffffffffffffff1673ffffffffffffffffffffffffffffffffffffffff166374531d516040518163ffffffff167c0100000000000000000000000000000000000000000000000000000000028152600401600060405180830381600087803b1580156111af57600080fd5b505af11580156111c3573d6000803e3d6000fd5b505050503373ffffffffffffffffffffffffffffffffffffffff167fca0e32acd07d090741375861718cf6f063c6daec3dac8d9fb175248e52ee7d7b60405160405180910390a261121261053c565b565b6000600260009054906101000a900473ffffffffffffffffffffffffffffffffffffffff16905090565b6000600360009054906101000a900473ffffffffffffffffffffffffffffffffffffffff16905090565b6112706121a2565b6112786121a2565b61128f858585846118fa909392919063ffffffff16565b9150509392505050565b6060600960016002811015156112ab57fe5b0160405160200180807f72617465732e0000000000000000000000000000000000000000000000000000815250600601828054600181600116156101000203166002900480156113325780601f10611310576101008083540402835291820191611332565b820191906000526020600020905b81548152906001019060200180831161131e575b5050915050604051602081830303815290604052905090565b6113628284608001516119b490919063ffffffff16565b6113798184608001516119b490919063ffffffff16565b505050565b6113958284608001516119b490919063ffffffff16565b6113ac8184608001516119d990919063ffffffff16565b505050565b600030600454604051602001808373ffffffffffffffffffffffffffffffffffffffff1673ffffffffffffffffffffffffffffffffffffffff166c01000000000000000000000000028152601401828152602001925050506040516020818303038152906040526040518082805190602001908083835b60208310151561144d5780518252602082019150602081019050602083039250611428565b6001836020036101000a038019825116818451168082178552505050505050905001915050604051809103902090506004548360600181815250508360056000836000191660001916815260200190815260200160002060006101000a81548173ffffffffffffffffffffffffffffffffffffffff021916908373ffffffffffffffffffffffffffffffffffffffff16021790555080600019167fb5e6e01e79f91267dc17b4e6314d5d4d03593d2ceee0fbb452b750bd70ea5af960405160405180910390a2600260009054906101000a900473ffffffffffffffffffffffffffffffffffffffff1673ffffffffffffffffffffffffffffffffffffffff16634000aea0858461155c87611a27565b6040518463ffffffff167c0100000000000000000000000000000000000000000000000000000000028152600401808473ffffffffffffffffffffffffffffffffffffffff1673ffffffffffffffffffffffffffffffffffffffff16815260200183815260200180602001828103825283818151815260200191508051906020019080838360005b838110156115ff5780820151818401526020810190506115e4565b50505050905090810190601f16801561162c5780820380516001836020036101000a031916815260200191505b50945050505050602060405180830381600087803b15801561164d57600080fd5b505af1158015611661573d6000803e3d6000fd5b505050506040513d602081101561167757600080fd5b81019080805190602001909291905050501515611722576040517f08c379a00000000000000000000000000000000000000000000000000000000081526004018080602001828103825260238152602001807f756e61626c6520746f207472616e73666572416e6443616c6c20746f206f726181526020017f636c65000000000000000000000000000000000000000000000000000000000081525060400191505060405180910390fd5b60016004600082825401925050819055508090509392505050565b600080828412156117ee578383039150600e54826013540281151561175e57fe5b049050806011600060028110151561177257fe5b0154016011600060028110151561178557fe5b0181905550806011600160028110151561179b57fe5b015403601160016002811015156117ae57fe5b01819055506002600754026013548115156117c557fe5b04601160016002811015156117d657fe5b015410156117e9576117e86001611c52565b5b61189d565b828414156117fb576118f4565b8284039150600e54826013540281151561181157fe5b049050806011600060028110151561182557fe5b0154036011600060028110151561183857fe5b0181905550806011600160028110151561184e57fe5b0154016011600160028110151561186157fe5b018190555060026007540260135481151561187857fe5b046011600060028110151561188957fe5b0154101561189c5761189b6000611c52565b5b5b3373ffffffffffffffffffffffffffffffffffffffff167f9fdaccf4ce37d30b077a90a79012d42faee79639f7272c9d7d6f0b5947972c8b8585604051808381526020018281526020019250505060405180910390a25b50505050565b6119026121a2565b6119128560800151610100611d94565b50838560000190600019169081600019168152505082856020019073ffffffffffffffffffffffffffffffffffffffff16908173ffffffffffffffffffffffffffffffffffffffff16815250508185604001907bffffffffffffffffffffffffffffffffffffffffffffffffffffffff191690817bffffffffffffffffffffffffffffffffffffffffffffffffffffffff191681525050849050949350505050565b6119c18260038351611dee565b6119d48183611f4c90919063ffffffff16565b505050565b6000811215156119f4576119ef82600083611dee565b611a23565b611a22826001837fffffffffffffffffffffffffffffffffffffffffffffffffffffffffffffffff03611dee565b5b5050565b6060600360009054906101000a900473ffffffffffffffffffffffffffffffffffffffff1673ffffffffffffffffffffffffffffffffffffffff16634042994690507c01000000000000000000000000000000000000000000000000000000000260008084600001518560200151866040015187606001516001896080015160000151604051602401808973ffffffffffffffffffffffffffffffffffffffff1673ffffffffffffffffffffffffffffffffffffffff16815260200188815260200187600019166000191681526020018673ffffffffffffffffffffffffffffffffffffffff1673ffffffffffffffffffffffffffffffffffffffff168152602001857bffffffffffffffffffffffffffffffffffffffffffffffffffffffff19167bffffffffffffffffffffffffffffffffffffffffffffffffffffffff1916815260200184815260200183815260200180602001828103825283818151815260200191508051906020019080838360005b83811015611bb5578082015181840152602081019050611b9a565b50505050905090810190601f168015611be25780820380516001836020036101000a031916815260200191505b509950505050505050505050604051602081830303815290604052907bffffffffffffffffffffffffffffffffffffffffffffffffffffffff19166020820180517bffffffffffffffffffffffffffffffffffffffffffffffffffffffff83818316178352505050509050919050565b60006001821415611cb65760116001600281101515611c6d57fe5b01549050600060116001600281101515611c8357fe5b01819055508060116000600281101515611c9957fe5b01540160116000600281101515611cac57fe5b0181905550611d0b565b60116000600281101515611cc657fe5b01549050600060116000600281101515611cdc57fe5b01819055508060116001600281101515611cf257fe5b01540160116001600281101515611d0557fe5b01819055505b42601581905550600b82600281101515611d2157fe5b0160009054906101000a900473ffffffffffffffffffffffffffffffffffffffff1673ffffffffffffffffffffffffffffffffffffffff167f8cd8a6ee40f6b5419c6270f84b104c9bae0ec694b869040b1c539ab73ff8a214426040518082815260200191505060405180910390a25050565b611d9c612210565b6000602083811515611daa57fe5b06141515611dc757602082811515611dbe57fe5b06602003820191505b81836020018181525050604051808452600081528281016020016040525082905092915050565b601781111515611e2057611e1a8160058460ff169060020a0260ff161784611f6e90919063ffffffff16565b50611f47565b60ff81111515611e6757611e4a601860058460ff169060020a021784611f6e90919063ffffffff16565b50611e6181600185611f8e9092919063ffffffff16565b50611f46565b61ffff81111515611eaf57611e92601960058460ff169060020a021784611f6e90919063ffffffff16565b50611ea981600285611f8e9092919063ffffffff16565b50611f45565b63ffffffff81111515611ef957611edc601a60058460ff169060020a021784611f6e90919063ffffffff16565b50611ef381600485611f8e9092919063ffffffff16565b50611f44565b67ffffffffffffffff81111515611f4357611f2a601b60058460ff169060020a021784611f6e90919063ffffffff16565b50611f4181600885611f8e9092919063ffffffff16565b505b5b5b5b5b505050565b611f54612210565b611f6683846000015151848551611fb0565b905092915050565b611f76612210565b611f86838460000151518461206d565b905092915050565b611f96612210565b611fa78485600001515185856120bd565b90509392505050565b611fb8612210565b600080600085518511151515611fcd57600080fd5b87602001518588011115611ff857611ff7886002611ff18b602001518b8a0161211e565b0261213a565b5b8751805188602083010194508089880111156120145788870182525b60208801935050505b602085101515612042578151835260208301925060208201915060208503945061201d565b6001856020036101000a03905080198251168184511681811785525050879350505050949350505050565b612075612210565b8360200151831015156120945761209384600286602001510261213a565b5b83518051602085830101848153818614156120b0576001820183525b5050508390509392505050565b6120c5612210565b6000856020015185840111156120e5576120e48660028786010261213a565b5b6001836101000a03905085518386820101858319825116178152815185880111156121105784870182525b505085915050949350505050565b60008183111561213057829050612134565b8190505b92915050565b60608260000151905061214d8383611d94565b506121588382611f4c565b50505050565b6040805190810160405280600290602082028038833980820191505090505090565b6040805190810160405280600290602082028038833980820191505090505090565b60c06040519081016040528060008019168152602001600073ffffffffffffffffffffffffffffffffffffffff16815260200160007bffffffffffffffffffffffffffffffffffffffffffffffffffffffff191681526020016000815260200161220a61222a565b81525090565b604080519081016040528060608152602001600081525090565b6040805190810160405280606081526020016000815250905600a165627a7a7230582038ba4e5af0c9bf7d988d85fc4d3710814049350d1fda74bc70778ef6b2b336150029a165627a7a723058205c38d607e22e237af16d5cf9477f0d7c71bba5714114cf379b42d795e5f9575b0029",
  "source": "pragma solidity 0.4.24;\n\nimport \"./ForexTrade.sol\";\n\ncontract ForexTradeFactory {\n    mapping(address => address[]) tradesByAddress; // user address => trade contract address\n    mapping(address => bool) contractExists;\n\n    address ropstenLINKAddress = 0x20fE562d797A42Dcb3399062AE9546cd06f63280;\n    address oracleAddress = 0x4a3FBbB385b5eFEB4BC84a25AaADcD644Bd09721;\n\n    bytes32 jobId;\n\n    event TradeCreated(address indexed creator, address tradeContract);\n    event CounterpartyRegistered(\n        address indexed counterparty,\n        address tradeContract\n    );\n\n    constructor(bytes32 _jobId) public {\n        jobId = _jobId;\n    }\n\n    function createTrade(string _currencyA, string _currencyB) public {\n        ForexTrade newTrade = new ForexTrade(\n            ropstenLINKAddress,\n            oracleAddress,\n            _currencyA,\n            _currencyB,\n            jobId,\n            address(this)\n        );\n\n        tradesByAddress[msg.sender].push(address(newTrade));\n        contractExists[address(newTrade)] = true;\n\n        TradeCreated(msg.sender, address(newTrade));\n    }\n\n    function registerCounterparty() public {\n        require(contractExists[msg.sender] == true, \"Invalid contract\");\n        tradesByAddress[tx.origin].push(msg.sender);\n\n        CounterpartyRegistered(tx.origin, msg.sender);\n    }\n\n    function getTradesByAddress(address _counterparty)\n        view\n        returns (address[] _trades)\n    {\n        return tradesByAddress[_counterparty];\n    }\n\n}\n",
  "sourcePath": "/Users/michaeljcohen/Desktop/projects/forex-trader/contracts/ForexTradeFactory.sol",
  "compiler": {
    "name": "solc",
    "version": "0.4.24+commit.e67f0147.Emscripten.clang"
  },
  "schemaVersion": "3.0.2",
  "updatedAt": "2019-12-11T02:37:21.394Z",
  "devdoc": {
    "methods": {}
  },
  "userdoc": {
    "methods": {}
  }
}