{
  "contractName": "AirPatrol",
  "abi": [
    {
      "constant": false,
      "inputs": [],
      "name": "renounceOwnership",
      "outputs": [],
      "payable": false,
      "stateMutability": "nonpayable",
      "type": "function"
    },
    {
      "constant": true,
      "inputs": [],
      "name": "data",
      "outputs": [
        {
          "name": "",
          "type": "int256"
        }
      ],
      "payable": false,
      "stateMutability": "view",
      "type": "function"
    },
    {
      "constant": true,
      "inputs": [],
      "name": "owner",
      "outputs": [
        {
          "name": "",
          "type": "address"
        }
      ],
      "payable": false,
      "stateMutability": "view",
      "type": "function"
    },
    {
      "constant": false,
      "inputs": [
        {
          "name": "_newOwner",
          "type": "address"
        }
      ],
      "name": "transferOwnership",
      "outputs": [],
      "payable": false,
      "stateMutability": "nonpayable",
      "type": "function"
    },
    {
      "inputs": [
        {
          "name": "_link",
          "type": "address"
        },
        {
          "name": "_oracle",
          "type": "address"
        }
      ],
      "payable": false,
      "stateMutability": "nonpayable",
      "type": "constructor"
    },
    {
      "anonymous": false,
      "inputs": [
        {
          "indexed": true,
          "name": "previousOwner",
          "type": "address"
        }
      ],
      "name": "OwnershipRenounced",
      "type": "event"
    },
    {
      "anonymous": false,
      "inputs": [
        {
          "indexed": true,
          "name": "previousOwner",
          "type": "address"
        },
        {
          "indexed": true,
          "name": "newOwner",
          "type": "address"
        }
      ],
      "name": "OwnershipTransferred",
      "type": "event"
    },
    {
      "anonymous": false,
      "inputs": [
        {
          "indexed": true,
          "name": "id",
          "type": "bytes32"
        }
      ],
      "name": "ChainlinkRequested",
      "type": "event"
    },
    {
      "anonymous": false,
      "inputs": [
        {
          "indexed": true,
          "name": "id",
          "type": "bytes32"
        }
      ],
      "name": "ChainlinkFulfilled",
      "type": "event"
    },
    {
      "anonymous": false,
      "inputs": [
        {
          "indexed": true,
          "name": "id",
          "type": "bytes32"
        }
      ],
      "name": "ChainlinkCancelled",
      "type": "event"
    },
    {
      "constant": true,
      "inputs": [],
      "name": "getChainlinkToken",
      "outputs": [
        {
          "name": "",
          "type": "address"
        }
      ],
      "payable": false,
      "stateMutability": "view",
      "type": "function"
    },
    {
      "constant": true,
      "inputs": [],
      "name": "getOracle",
      "outputs": [
        {
          "name": "",
          "type": "address"
        }
      ],
      "payable": false,
      "stateMutability": "view",
      "type": "function"
    },
    {
      "constant": false,
      "inputs": [
        {
          "name": "_jobId",
          "type": "bytes32"
        },
        {
          "name": "_baseCurrency",
          "type": "string"
        },
        {
          "name": "_symbols",
          "type": "string"
        },
        {
          "name": "_path",
          "type": "string"
        },
        {
          "name": "_times",
          "type": "int256"
        }
      ],
      "name": "createRequest",
      "outputs": [
        {
          "name": "",
          "type": "bytes32"
        }
      ],
      "payable": false,
      "stateMutability": "nonpayable",
      "type": "function"
    },
    {
      "constant": false,
      "inputs": [
        {
          "name": "_oracle",
          "type": "address"
        },
        {
          "name": "_jobId",
          "type": "bytes32"
        },
        {
          "name": "_baseCurrency",
          "type": "string"
        },
        {
          "name": "_symbols",
          "type": "string"
        },
        {
          "name": "_path",
          "type": "string"
        },
        {
          "name": "_times",
          "type": "int256"
        }
      ],
      "name": "createRequestTo",
      "outputs": [
        {
          "name": "requestId",
          "type": "bytes32"
        }
      ],
      "payable": false,
      "stateMutability": "nonpayable",
      "type": "function"
    },
    {
      "constant": false,
      "inputs": [
        {
          "name": "_requestId",
          "type": "bytes32"
        },
        {
          "name": "_data",
          "type": "int256"
        }
      ],
      "name": "fulfill",
      "outputs": [],
      "payable": false,
      "stateMutability": "nonpayable",
      "type": "function"
    },
    {
      "constant": false,
      "inputs": [],
      "name": "withdrawLink",
      "outputs": [],
      "payable": false,
      "stateMutability": "nonpayable",
      "type": "function"
    },
    {
      "constant": false,
      "inputs": [
        {
          "name": "_requestId",
          "type": "bytes32"
        },
        {
          "name": "_payment",
          "type": "uint256"
        },
        {
          "name": "_callbackFunctionId",
          "type": "bytes4"
        },
        {
          "name": "_expiration",
          "type": "uint256"
        }
      ],
      "name": "cancelRequest",
      "outputs": [],
      "payable": false,
      "stateMutability": "nonpayable",
      "type": "function"
    }
  ],
  "bytecode": "0x6080604052600160045534801561001557600080fd5b50604051604080611e5e833981018060405281019080805190602001909291908051906020019092919050505033600660006101000a81548173ffffffffffffffffffffffffffffffffffffffff021916908373ffffffffffffffffffffffffffffffffffffffff16021790555061009b826100ba640100000000026401000000009004565b6100b3816100fe640100000000026401000000009004565b5050610142565b80600260006101000a81548173ffffffffffffffffffffffffffffffffffffffff021916908373ffffffffffffffffffffffffffffffffffffffff16021790555050565b80600360006101000a81548173ffffffffffffffffffffffffffffffffffffffff021916908373ffffffffffffffffffffffffffffffffffffffff16021790555050565b611d0d806101516000396000f3006080604052600436106100af576000357c0100000000000000000000000000000000000000000000000000000000900463ffffffff168063165d35e1146100b4578063715018a61461010b57806373d4a13a14610122578063833b1fce1461014d5780638da5cb5b146101a45780638dc654a2146101fb5780639f9c4d2814610212578063bda71d041461035b578063ec65d0f814610396578063f2fde38b14610404578063f405152b14610447575b600080fd5b3480156100c057600080fd5b506100c9610570565b604051808273ffffffffffffffffffffffffffffffffffffffff1673ffffffffffffffffffffffffffffffffffffffff16815260200191505060405180910390f35b34801561011757600080fd5b5061012061057f565b005b34801561012e57600080fd5b50610137610684565b6040518082815260200191505060405180910390f35b34801561015957600080fd5b5061016261068a565b604051808273ffffffffffffffffffffffffffffffffffffffff1673ffffffffffffffffffffffffffffffffffffffff16815260200191505060405180910390f35b3480156101b057600080fd5b506101b9610699565b604051808273ffffffffffffffffffffffffffffffffffffffff1673ffffffffffffffffffffffffffffffffffffffff16815260200191505060405180910390f35b34801561020757600080fd5b506102106106bf565b005b34801561021e57600080fd5b5061033d600480360381019080803573ffffffffffffffffffffffffffffffffffffffff1690602001909291908035600019169060200190929190803590602001908201803590602001908080601f0160208091040260200160405190810160405280939291908181526020018383808284378201915050505050509192919290803590602001908201803590602001908080601f0160208091040260200160405190810160405280939291908181526020018383808284378201915050505050509192919290803590602001908201803590602001908080601f016020809104026020016040519081016040528093929190818152602001838380828437820191505050505050919291929080359060200190929190505050610951565b60405180826000191660001916815260200191505060405180910390f35b34801561036757600080fd5b50610394600480360381019080803560001916906020019092919080359060200190929190505050610b3b565b005b3480156103a257600080fd5b5061040260048036038101908080356000191690602001909291908035906020019092919080357bffffffffffffffffffffffffffffffffffffffffffffffffffffffff1916906020019092919080359060200190929190505050610cbb565b005b34801561041057600080fd5b50610445600480360381019080803573ffffffffffffffffffffffffffffffffffffffff169060200190929190505050610d29565b005b34801561045357600080fd5b506105526004803603810190808035600019169060200190929190803590602001908201803590602001908080601f0160208091040260200160405190810160405280939291908181526020018383808284378201915050505050509192919290803590602001908201803590602001908080601f0160208091040260200160405190810160405280939291908181526020018383808284378201915050505050509192919290803590602001908201803590602001908080601f016020809104026020016040519081016040528093929190818152602001838380828437820191505050505050919291929080359060200190929190505050610d91565b60405180826000191660001916815260200191505060405180910390f35b600061057a610e0f565b905090565b600660009054906101000a900473ffffffffffffffffffffffffffffffffffffffff1673ffffffffffffffffffffffffffffffffffffffff163373ffffffffffffffffffffffffffffffffffffffff161415156105db57600080fd5b600660009054906101000a900473ffffffffffffffffffffffffffffffffffffffff1673ffffffffffffffffffffffffffffffffffffffff167ff8df31144d9c2f0f6b59d69b8b98abd5459d07f2742c4df920b25aae33c6482060405160405180910390a26000600660006101000a81548173ffffffffffffffffffffffffffffffffffffffff021916908373ffffffffffffffffffffffffffffffffffffffff160217905550565b60075481565b6000610694610e39565b905090565b600660009054906101000a900473ffffffffffffffffffffffffffffffffffffffff1681565b6000600660009054906101000a900473ffffffffffffffffffffffffffffffffffffffff1673ffffffffffffffffffffffffffffffffffffffff163373ffffffffffffffffffffffffffffffffffffffff1614151561071d57600080fd5b610725610e0f565b90508073ffffffffffffffffffffffffffffffffffffffff1663a9059cbb338373ffffffffffffffffffffffffffffffffffffffff166370a08231306040518263ffffffff167c0100000000000000000000000000000000000000000000000000000000028152600401808273ffffffffffffffffffffffffffffffffffffffff1673ffffffffffffffffffffffffffffffffffffffff168152602001915050602060405180830381600087803b1580156107df57600080fd5b505af11580156107f3573d6000803e3d6000fd5b505050506040513d602081101561080957600080fd5b81019080805190602001909291905050506040518363ffffffff167c0100000000000000000000000000000000000000000000000000000000028152600401808373ffffffffffffffffffffffffffffffffffffffff1673ffffffffffffffffffffffffffffffffffffffff16815260200182815260200192505050602060405180830381600087803b15801561089f57600080fd5b505af11580156108b3573d6000803e3d6000fd5b505050506040513d60208110156108c957600080fd5b8101908080519060200190929190505050151561094e576040517f08c379a00000000000000000000000000000000000000000000000000000000081526004018080602001828103825260128152602001807f556e61626c6520746f207472616e73666572000000000000000000000000000081525060200191505060405180910390fd5b50565b600061095b611c3f565b600660009054906101000a900473ffffffffffffffffffffffffffffffffffffffff1673ffffffffffffffffffffffffffffffffffffffff163373ffffffffffffffffffffffffffffffffffffffff161415156109b757600080fd5b6109e5873063bda71d047c010000000000000000000000000000000000000000000000000000000002610e63565b9050610a316040805190810160405280600881526020017f636f7079506174680000000000000000000000000000000000000000000000008152508583610e949092919063ffffffff16565b610a7b6040805190810160405280600481526020017f62617365000000000000000000000000000000000000000000000000000000008152508783610e949092919063ffffffff16565b610ac56040805190810160405280600781526020017f73796d626f6c73000000000000000000000000000000000000000000000000008152508683610e949092919063ffffffff16565b610b0f6040805190810160405280600581526020017f74696d65730000000000000000000000000000000000000000000000000000008152508483610ec79092919063ffffffff16565b610b2e88826009670de0b6b3a7640000811515610b2857fe5b04610efa565b9150509695505050505050565b8160056000826000191660001916815260200190815260200160002060009054906101000a900473ffffffffffffffffffffffffffffffffffffffff1673ffffffffffffffffffffffffffffffffffffffff163373ffffffffffffffffffffffffffffffffffffffff16141515610c40576040517f08c379a00000000000000000000000000000000000000000000000000000000081526004018080602001828103825260288152602001807f536f75726365206d75737420626520746865206f7261636c65206f662074686581526020017f207265717565737400000000000000000000000000000000000000000000000081525060400191505060405180910390fd5b60056000826000191660001916815260200190815260200160002060006101000a81549073ffffffffffffffffffffffffffffffffffffffff021916905580600019167f7cc135e0cebb02c3480ae5d74d377283180a2601f8f644edf7987b009316c63a60405160405180910390a281600781905550505050565b600660009054906101000a900473ffffffffffffffffffffffffffffffffffffffff1673ffffffffffffffffffffffffffffffffffffffff163373ffffffffffffffffffffffffffffffffffffffff16141515610d1757600080fd5b610d2384848484611286565b50505050565b600660009054906101000a900473ffffffffffffffffffffffffffffffffffffffff1673ffffffffffffffffffffffffffffffffffffffff163373ffffffffffffffffffffffffffffffffffffffff16141515610d8557600080fd5b610d8e81611421565b50565b6000600660009054906101000a900473ffffffffffffffffffffffffffffffffffffffff1673ffffffffffffffffffffffffffffffffffffffff163373ffffffffffffffffffffffffffffffffffffffff16141515610def57600080fd5b610e04610dfa61068a565b8787878787610951565b905095945050505050565b6000600260009054906101000a900473ffffffffffffffffffffffffffffffffffffffff16905090565b6000600360009054906101000a900473ffffffffffffffffffffffffffffffffffffffff16905090565b610e6b611c3f565b610e73611c3f565b610e8a8585858461151d909392919063ffffffff16565b9150509392505050565b610eab8284608001516115d790919063ffffffff16565b610ec28184608001516115d790919063ffffffff16565b505050565b610ede8284608001516115d790919063ffffffff16565b610ef58184608001516115fc90919063ffffffff16565b505050565b600030600454604051602001808373ffffffffffffffffffffffffffffffffffffffff1673ffffffffffffffffffffffffffffffffffffffff166c01000000000000000000000000028152601401828152602001925050506040516020818303038152906040526040518082805190602001908083835b602083101515610f965780518252602082019150602081019050602083039250610f71565b6001836020036101000a038019825116818451168082178552505050505050905001915050604051809103902090506004548360600181815250508360056000836000191660001916815260200190815260200160002060006101000a81548173ffffffffffffffffffffffffffffffffffffffff021916908373ffffffffffffffffffffffffffffffffffffffff16021790555080600019167fb5e6e01e79f91267dc17b4e6314d5d4d03593d2ceee0fbb452b750bd70ea5af960405160405180910390a2600260009054906101000a900473ffffffffffffffffffffffffffffffffffffffff1673ffffffffffffffffffffffffffffffffffffffff16634000aea085846110a58761164a565b6040518463ffffffff167c0100000000000000000000000000000000000000000000000000000000028152600401808473ffffffffffffffffffffffffffffffffffffffff1673ffffffffffffffffffffffffffffffffffffffff16815260200183815260200180602001828103825283818151815260200191508051906020019080838360005b8381101561114857808201518184015260208101905061112d565b50505050905090810190601f1680156111755780820380516001836020036101000a031916815260200191505b50945050505050602060405180830381600087803b15801561119657600080fd5b505af11580156111aa573d6000803e3d6000fd5b505050506040513d60208110156111c057600080fd5b8101908080519060200190929190505050151561126b576040517f08c379a00000000000000000000000000000000000000000000000000000000081526004018080602001828103825260238152602001807f756e61626c6520746f207472616e73666572416e6443616c6c20746f206f726181526020017f636c65000000000000000000000000000000000000000000000000000000000081525060400191505060405180910390fd5b60016004600082825401925050819055508090509392505050565b600060056000866000191660001916815260200190815260200160002060009054906101000a900473ffffffffffffffffffffffffffffffffffffffff16905060056000866000191660001916815260200190815260200160002060006101000a81549073ffffffffffffffffffffffffffffffffffffffff021916905584600019167fe1fe3afa0f7f761ff0a8b89086790efd5140d2907ebd5b7ff6bfcb5e075fd4c560405160405180910390a28073ffffffffffffffffffffffffffffffffffffffff16636ee4d553868686866040518563ffffffff167c0100000000000000000000000000000000000000000000000000000000028152600401808560001916600019168152602001848152602001837bffffffffffffffffffffffffffffffffffffffffffffffffffffffff19167bffffffffffffffffffffffffffffffffffffffffffffffffffffffff19168152602001828152602001945050505050600060405180830381600087803b15801561140257600080fd5b505af1158015611416573d6000803e3d6000fd5b505050505050505050565b600073ffffffffffffffffffffffffffffffffffffffff168173ffffffffffffffffffffffffffffffffffffffff161415151561145d57600080fd5b8073ffffffffffffffffffffffffffffffffffffffff16600660009054906101000a900473ffffffffffffffffffffffffffffffffffffffff1673ffffffffffffffffffffffffffffffffffffffff167f8be0079c531659141344cd1fd0a4f28419497f9722a3daafe3b4186f6b6457e060405160405180910390a380600660006101000a81548173ffffffffffffffffffffffffffffffffffffffff021916908373ffffffffffffffffffffffffffffffffffffffff16021790555050565b611525611c3f565b6115358560800151610100611875565b50838560000190600019169081600019168152505082856020019073ffffffffffffffffffffffffffffffffffffffff16908173ffffffffffffffffffffffffffffffffffffffff16815250508185604001907bffffffffffffffffffffffffffffffffffffffffffffffffffffffff191690817bffffffffffffffffffffffffffffffffffffffffffffffffffffffff191681525050849050949350505050565b6115e482600383516118cf565b6115f78183611a2d90919063ffffffff16565b505050565b60008112151561161757611612826000836118cf565b611646565b611645826001837fffffffffffffffffffffffffffffffffffffffffffffffffffffffffffffffff036118cf565b5b5050565b6060600360009054906101000a900473ffffffffffffffffffffffffffffffffffffffff1673ffffffffffffffffffffffffffffffffffffffff16634042994690507c01000000000000000000000000000000000000000000000000000000000260008084600001518560200151866040015187606001516001896080015160000151604051602401808973ffffffffffffffffffffffffffffffffffffffff1673ffffffffffffffffffffffffffffffffffffffff16815260200188815260200187600019166000191681526020018673ffffffffffffffffffffffffffffffffffffffff1673ffffffffffffffffffffffffffffffffffffffff168152602001857bffffffffffffffffffffffffffffffffffffffffffffffffffffffff19167bffffffffffffffffffffffffffffffffffffffffffffffffffffffff1916815260200184815260200183815260200180602001828103825283818151815260200191508051906020019080838360005b838110156117d85780820151818401526020810190506117bd565b50505050905090810190601f1680156118055780820380516001836020036101000a031916815260200191505b509950505050505050505050604051602081830303815290604052907bffffffffffffffffffffffffffffffffffffffffffffffffffffffff19166020820180517bffffffffffffffffffffffffffffffffffffffffffffffffffffffff83818316178352505050509050919050565b61187d611cad565b600060208381151561188b57fe5b061415156118a85760208281151561189f57fe5b06602003820191505b81836020018181525050604051808452600081528281016020016040525082905092915050565b601781111515611901576118fb8160058460ff169060020a0260ff161784611a4f90919063ffffffff16565b50611a28565b60ff811115156119485761192b601860058460ff169060020a021784611a4f90919063ffffffff16565b5061194281600185611a6f9092919063ffffffff16565b50611a27565b61ffff8111151561199057611973601960058460ff169060020a021784611a4f90919063ffffffff16565b5061198a81600285611a6f9092919063ffffffff16565b50611a26565b63ffffffff811115156119da576119bd601a60058460ff169060020a021784611a4f90919063ffffffff16565b506119d481600485611a6f9092919063ffffffff16565b50611a25565b67ffffffffffffffff81111515611a2457611a0b601b60058460ff169060020a021784611a4f90919063ffffffff16565b50611a2281600885611a6f9092919063ffffffff16565b505b5b5b5b5b505050565b611a35611cad565b611a4783846000015151848551611a91565b905092915050565b611a57611cad565b611a678384600001515184611b4e565b905092915050565b611a77611cad565b611a88848560000151518585611b9e565b90509392505050565b611a99611cad565b600080600085518511151515611aae57600080fd5b87602001518588011115611ad957611ad8886002611ad28b602001518b8a01611bff565b02611c1b565b5b875180518860208301019450808988011115611af55788870182525b60208801935050505b602085101515611b235781518352602083019250602082019150602085039450611afe565b6001856020036101000a03905080198251168184511681811785525050879350505050949350505050565b611b56611cad565b836020015183101515611b7557611b74846002866020015102611c1b565b5b8351805160208583010184815381861415611b91576001820183525b5050508390509392505050565b611ba6611cad565b600085602001518584011115611bc657611bc586600287860102611c1b565b5b6001836101000a0390508551838682010185831982511617815281518588011115611bf15784870182525b505085915050949350505050565b600081831115611c1157829050611c15565b8190505b92915050565b606082600001519050611c2e8383611875565b50611c398382611a2d565b50505050565b60c06040519081016040528060008019168152602001600073ffffffffffffffffffffffffffffffffffffffff16815260200160007bffffffffffffffffffffffffffffffffffffffffffffffffffffffff1916815260200160008152602001611ca7611cc7565b81525090565b604080519081016040528060608152602001600081525090565b6040805190810160405280606081526020016000815250905600a165627a7a723058208222b36ed35c4f108740c373545db44b95085559a8aa180551ca24e0da6188730029",
  "source": "pragma solidity 0.4.24;\n\nimport \"chainlink/contracts/ChainlinkClient.sol\";\nimport \"openzeppelin-solidity/contracts/ownership/Ownable.sol\";\n\n/**\n * @title MyContract is an example contract which requests data from\n * the Chainlink network\n * @dev This contract is designed to work on multiple networks, including\n * local test networks\n */\ncontract AirPatrol is ChainlinkClient, Ownable {\n  // solium-disable-next-line zeppelin/no-arithmetic-operations\n  uint256 constant private ORACLE_PAYMENT = LINK / 9; \n  int256 public data; //maybe int instead. see return val\n\n  /**\n   * @notice Deploy the contract with a specified address for the LINK\n   * and Oracle contract addresses\n   * @dev Sets the storage for the specified addresses\n   * @param _link The address of the LINK token contract\n   * @param _oracle The address of the Oracle contract\n   */\n  constructor(address _link, address _oracle) public {\n    setChainlinkToken(_link);\n    setChainlinkOracle(_oracle);\n  }\n\n  /**\n   * @notice Returns the address of the LINK token\n   * @dev This is the public implementation for chainlinkTokenAddress, which is\n   * an internal method of the ChainlinkClient contract\n   */\n  function getChainlinkToken() public view returns (address) {\n    return chainlinkTokenAddress();\n  }\n\n  /**\n   * @notice Returns the address of the Oracle contract\n   * @dev This is the public implementation for chainlinkOracleAddress, which is\n   * an internal method of the ChainlinkClient contract\n   */\n  function getOracle() public view returns (address) {\n    return chainlinkOracleAddress();\n  }\n\n  /**\n   * @notice Creates a request to the stored Oracle contract address\n   * @dev Calls createRequestTo using the stored Oracle contract address\n   * for the first parameter\n   * @param _jobId The bytes32 JobID to be executed\n   * @param _baseCurrency USD\n   * @param _path gbp/eur\n   * @param _path The dot-delimited path to parse of the response\n   * @param _times The number to multiply the result by\n   */\n  function createRequest(\n    bytes32 _jobId,\n    string _baseCurrency, // USD\n    string _symbols, \n    string _path,\n    int256 _times\n  )\n    public\n    onlyOwner\n    returns (bytes32)\n  {\n    return createRequestTo(getOracle(), _jobId, _baseCurrency, _symbols, _path, _times);\n  }\n\n  /**\n   * @notice Creates a request to the specified Oracle contract address\n   * @dev This function ignores the stored Oracle contract address and\n   * will instead send the request to the address specified\n   * @param _oracle The Oracle contract address to send the request to\n   * @param _jobId The bytes32 JobID to be executed\n   * @param _baseCurrency base usd\n   * @param _symbols eur,gbp,jpy\n   * @param _path The dot-delimited path to parse of the response\n   * @param _times The number to multiply the result by\n   */\n  function createRequestTo(\n    address _oracle,\n    bytes32 _jobId,\n    string _baseCurrency, // USD\n    string _symbols, \n    string _path,\n    int256 _times\n  )\n    public\n    onlyOwner\n    returns (bytes32 requestId)\n  {\n    Chainlink.Request memory req = buildChainlinkRequest(_jobId, this, this.fulfill.selector);\n    req.add(\"copyPath\", _path);\n    req.add(\"base\", _baseCurrency);\n    req.add(\"symbols\", _symbols);\n    req.addInt(\"times\", _times);\n    requestId = sendChainlinkRequestTo(_oracle, req, ORACLE_PAYMENT);\n  }\n\n  /**\n   * @notice The fulfill method from requests created by this contract\n   * @dev The recordChainlinkFulfillment protects this function from being called\n   * by anyone other than the oracle address that the request was sent to\n   * @param _requestId The ID that was generated for the request\n   * @param _data The answer provided by the oracle\n   */\n  function fulfill(bytes32 _requestId, int256 _data)\n    public\n    recordChainlinkFulfillment(_requestId)\n  {\n    data = _data;\n  }\n\n  /**\n   * @notice Allows the owner to withdraw any LINK balance on the contract\n   */\n  function withdrawLink() public onlyOwner {\n    LinkTokenInterface link = LinkTokenInterface(chainlinkTokenAddress());\n    require(link.transfer(msg.sender, link.balanceOf(address(this))), \"Unable to transfer\");\n  }\n\n  /**\n   * @notice Call this method if no response is received within 5 minutes\n   * @param _requestId The ID that was generated for the request to cancel\n   * @param _payment The payment specified for the request to cancel\n   * @param _callbackFunctionId The bytes4 callback function ID specified for\n   * the request to cancel\n   * @param _expiration The expiration generated for the request to cancel\n   */\n  function cancelRequest(\n    bytes32 _requestId,\n    uint256 _payment,\n    bytes4 _callbackFunctionId,\n    uint256 _expiration\n  )\n    public\n\t  onlyOwner\n  {\n    cancelChainlinkRequest(_requestId, _payment, _callbackFunctionId, _expiration);\n  }\n}",
  "sourcePath": "/Users/michaeljcohen/Desktop/projects/honeycomb-starter/contracts/ForexTrader.sol",
  "compiler": {
    "name": "solc",
    "version": "0.4.24+commit.e67f0147.Emscripten.clang"
  },
  "schemaVersion": "3.0.2",
  "updatedAt": "2019-12-03T22:44:13.723Z",
  "devdoc": {
    "methods": {
      "cancelRequest(bytes32,uint256,bytes4,uint256)": {
        "params": {
          "_callbackFunctionId": "The bytes4 callback function ID specified for the request to cancel",
          "_expiration": "The expiration generated for the request to cancel",
          "_payment": "The payment specified for the request to cancel",
          "_requestId": "The ID that was generated for the request to cancel"
        }
      },
      "createRequest(bytes32,string,string,string,int256)": {
        "details": "Calls createRequestTo using the stored Oracle contract address for the first parameter",
        "params": {
          "_baseCurrency": "USD",
          "_jobId": "The bytes32 JobID to be executed",
          "_path": "The dot-delimited path to parse of the response",
          "_times": "The number to multiply the result by"
        }
      },
      "createRequestTo(address,bytes32,string,string,string,int256)": {
        "details": "This function ignores the stored Oracle contract address and will instead send the request to the address specified",
        "params": {
          "_baseCurrency": "base usd",
          "_jobId": "The bytes32 JobID to be executed",
          "_oracle": "The Oracle contract address to send the request to",
          "_path": "The dot-delimited path to parse of the response",
          "_symbols": "eur,gbp,jpy",
          "_times": "The number to multiply the result by"
        }
      },
      "fulfill(bytes32,int256)": {
        "details": "The recordChainlinkFulfillment protects this function from being called by anyone other than the oracle address that the request was sent to",
        "params": {
          "_data": "The answer provided by the oracle",
          "_requestId": "The ID that was generated for the request"
        }
      },
      "getChainlinkToken()": {
        "details": "This is the public implementation for chainlinkTokenAddress, which is an internal method of the ChainlinkClient contract"
      },
      "getOracle()": {
        "details": "This is the public implementation for chainlinkOracleAddress, which is an internal method of the ChainlinkClient contract"
      },
      "renounceOwnership()": {
        "details": "Allows the current owner to relinquish control of the contract."
      },
      "transferOwnership(address)": {
        "details": "Allows the current owner to transfer control of the contract to a newOwner.",
        "params": {
          "_newOwner": "The address to transfer ownership to."
        }
      }
    },
    "title": "MyContract is an example contract which requests data from the Chainlink network"
  },
  "userdoc": {
    "methods": {
      "cancelRequest(bytes32,uint256,bytes4,uint256)": {
        "notice": "Call this method if no response is received within 5 minutes"
      },
      "createRequest(bytes32,string,string,string,int256)": {
        "notice": "Creates a request to the stored Oracle contract address"
      },
      "createRequestTo(address,bytes32,string,string,string,int256)": {
        "notice": "Creates a request to the specified Oracle contract address"
      },
      "fulfill(bytes32,int256)": {
        "notice": "The fulfill method from requests created by this contract"
      },
      "getChainlinkToken()": {
        "notice": "Returns the address of the LINK token"
      },
      "getOracle()": {
        "notice": "Returns the address of the Oracle contract"
      },
      "renounceOwnership()": {
        "notice": "Renouncing to ownership will leave the contract without an owner. It will not be possible to call the functions with the `onlyOwner` modifier anymore."
      },
      "withdrawLink()": {
        "notice": "Allows the owner to withdraw any LINK balance on the contract"
      }
    }
  }
}