{
  "contractName": "ForexTrade",
  "abi": [
    {
      "constant": true,
      "inputs": [],
      "name": "rate",
      "outputs": [
        {
          "name": "",
          "type": "int256"
        }
      ],
      "payable": false,
      "stateMutability": "view",
      "type": "function"
    },
    {
      "constant": false,
      "inputs": [],
      "name": "renounceOwnership",
      "outputs": [],
      "payable": false,
      "stateMutability": "nonpayable",
      "type": "function"
    },
    {
      "constant": true,
      "inputs": [],
      "name": "owner",
      "outputs": [
        {
          "name": "",
          "type": "address"
        }
      ],
      "payable": false,
      "stateMutability": "view",
      "type": "function"
    },
    {
      "constant": false,
      "inputs": [
        {
          "name": "_newOwner",
          "type": "address"
        }
      ],
      "name": "transferOwnership",
      "outputs": [],
      "payable": false,
      "stateMutability": "nonpayable",
      "type": "function"
    },
    {
      "inputs": [
        {
          "name": "_link",
          "type": "address"
        },
        {
          "name": "_oracle",
          "type": "address"
        },
        {
          "name": "_currencyA",
          "type": "string"
        },
        {
          "name": "_currencyB",
          "type": "string"
        },
        {
          "name": "_jobId",
          "type": "bytes32"
        },
        {
          "name": "_factoryAddress",
          "type": "address"
        }
      ],
      "payable": false,
      "stateMutability": "nonpayable",
      "type": "constructor"
    },
    {
      "anonymous": false,
      "inputs": [
        {
          "indexed": true,
          "name": "previousOwner",
          "type": "address"
        }
      ],
      "name": "OwnershipRenounced",
      "type": "event"
    },
    {
      "anonymous": false,
      "inputs": [
        {
          "indexed": true,
          "name": "previousOwner",
          "type": "address"
        },
        {
          "indexed": true,
          "name": "newOwner",
          "type": "address"
        }
      ],
      "name": "OwnershipTransferred",
      "type": "event"
    },
    {
      "anonymous": false,
      "inputs": [
        {
          "indexed": true,
          "name": "id",
          "type": "bytes32"
        }
      ],
      "name": "ChainlinkRequested",
      "type": "event"
    },
    {
      "anonymous": false,
      "inputs": [
        {
          "indexed": true,
          "name": "id",
          "type": "bytes32"
        }
      ],
      "name": "ChainlinkFulfilled",
      "type": "event"
    },
    {
      "anonymous": false,
      "inputs": [
        {
          "indexed": true,
          "name": "id",
          "type": "bytes32"
        }
      ],
      "name": "ChainlinkCancelled",
      "type": "event"
    },
    {
      "constant": true,
      "inputs": [],
      "name": "getChainlinkToken",
      "outputs": [
        {
          "name": "",
          "type": "address"
        }
      ],
      "payable": false,
      "stateMutability": "view",
      "type": "function"
    },
    {
      "constant": true,
      "inputs": [],
      "name": "getOracle",
      "outputs": [
        {
          "name": "",
          "type": "address"
        }
      ],
      "payable": false,
      "stateMutability": "view",
      "type": "function"
    },
    {
      "constant": false,
      "inputs": [],
      "name": "createRequest",
      "outputs": [
        {
          "name": "",
          "type": "bytes32"
        }
      ],
      "payable": false,
      "stateMutability": "nonpayable",
      "type": "function"
    },
    {
      "constant": false,
      "inputs": [
        {
          "name": "_oracle",
          "type": "address"
        },
        {
          "name": "_jobId",
          "type": "bytes32"
        },
        {
          "name": "_baseCurrency",
          "type": "string"
        },
        {
          "name": "_symbol",
          "type": "string"
        },
        {
          "name": "_times",
          "type": "int256"
        }
      ],
      "name": "createRequestTo",
      "outputs": [
        {
          "name": "requestId",
          "type": "bytes32"
        }
      ],
      "payable": false,
      "stateMutability": "nonpayable",
      "type": "function"
    },
    {
      "constant": false,
      "inputs": [
        {
          "name": "_requestId",
          "type": "bytes32"
        },
        {
          "name": "_rate",
          "type": "int256"
        }
      ],
      "name": "fulfill",
      "outputs": [],
      "payable": false,
      "stateMutability": "nonpayable",
      "type": "function"
    },
    {
      "constant": false,
      "inputs": [
        {
          "name": "_requestId",
          "type": "bytes32"
        },
        {
          "name": "_payment",
          "type": "uint256"
        },
        {
          "name": "_callbackFunctionId",
          "type": "bytes4"
        },
        {
          "name": "_expiration",
          "type": "uint256"
        }
      ],
      "name": "cancelRequest",
      "outputs": [],
      "payable": false,
      "stateMutability": "nonpayable",
      "type": "function"
    },
    {
      "constant": false,
      "inputs": [
        {
          "name": "_notional",
          "type": "uint256"
        },
        {
          "name": "_tradePeriodEnd",
          "type": "uint256"
        }
      ],
      "name": "initiateTrade",
      "outputs": [],
      "payable": true,
      "stateMutability": "payable",
      "type": "function"
    },
    {
      "constant": false,
      "inputs": [],
      "name": "acceptTrade",
      "outputs": [],
      "payable": true,
      "stateMutability": "payable",
      "type": "function"
    },
    {
      "constant": false,
      "inputs": [],
      "name": "updateRates",
      "outputs": [],
      "payable": false,
      "stateMutability": "nonpayable",
      "type": "function"
    }
  ],
  "bytecode": "0x60806040526001600455612710600d556000600e60006101000a81548160ff0219169083151502179055503480156200003757600080fd5b506040516200229338038062002293833981018060405281019080805190602001909291908051906020019092919080518201929190602001805182019291906020018051906020019092919080519060200190929190505050600033600660006101000a81548173ffffffffffffffffffffffffffffffffffffffff021916908373ffffffffffffffffffffffffffffffffffffffff160217905550620000ee87620001c6640100000000026401000000009004565b62000108866200020a640100000000026401000000009004565b84600860006002811015156200011a57fe5b019080519060200190620001309291906200024e565b5083600860016002811015156200014357fe5b019080519060200190620001599291906200024e565b5032600a60006002811015156200016c57fe5b0160006101000a81548173ffffffffffffffffffffffffffffffffffffffff021916908373ffffffffffffffffffffffffffffffffffffffff16021790555082600c816000191690555081905050505050505050620002fd565b80600260006101000a81548173ffffffffffffffffffffffffffffffffffffffff021916908373ffffffffffffffffffffffffffffffffffffffff16021790555050565b80600360006101000a81548173ffffffffffffffffffffffffffffffffffffffff021916908373ffffffffffffffffffffffffffffffffffffffff16021790555050565b828054600181600116156101000203166002900490600052602060002090601f016020900481019282601f106200029157805160ff1916838001178555620002c2565b82800160010185558215620002c2579182015b82811115620002c1578251825591602001919060010190620002a4565b5b509050620002d19190620002d5565b5090565b620002fa91905b80821115620002f6576000816000905550600101620002dc565b5090565b90565b611f86806200030d6000396000f3006080604052600436106100c5576000357c0100000000000000000000000000000000000000000000000000000000900463ffffffff168063165d35e1146100ca5780632c4e722e146101215780633c3821f41461014c578063715018a614610163578063833b1fce1461017a5780638da5cb5b146101d1578063995f789214610228578063bda71d041461032b578063c957907814610366578063c9f746a014610399578063ec65d0f8146103c3578063f2fde38b14610431578063fa4cbc4114610474575b600080fd5b3480156100d657600080fd5b506100df61047e565b604051808273ffffffffffffffffffffffffffffffffffffffff1673ffffffffffffffffffffffffffffffffffffffff16815260200191505060405180910390f35b34801561012d57600080fd5b5061013661048d565b6040518082815260200191505060405180910390f35b34801561015857600080fd5b50610161610493565b005b34801561016f57600080fd5b50610178610518565b005b34801561018657600080fd5b5061018f61061d565b604051808273ffffffffffffffffffffffffffffffffffffffff1673ffffffffffffffffffffffffffffffffffffffff16815260200191505060405180910390f35b3480156101dd57600080fd5b506101e661062c565b604051808273ffffffffffffffffffffffffffffffffffffffff1673ffffffffffffffffffffffffffffffffffffffff16815260200191505060405180910390f35b34801561023457600080fd5b5061030d600480360381019080803573ffffffffffffffffffffffffffffffffffffffff1690602001909291908035600019169060200190929190803590602001908201803590602001908080601f0160208091040260200160405190810160405280939291908181526020018383808284378201915050505050509192919290803590602001908201803590602001908080601f016020809104026020016040519081016040528093929190818152602001838380828437820191505050505050919291929080359060200190929190505050610652565b60405180826000191660001916815260200191505060405180910390f35b34801561033757600080fd5b506103646004803603810190808035600019169060200190929190803590602001909291905050506107e6565b005b34801561037257600080fd5b5061037b6109a9565b60405180826000191660001916815260200191505060405180910390f35b6103c16004803603810190808035906020019092919080359060200190929190505050610b1a565b005b3480156103cf57600080fd5b5061042f60048036038101908080356000191690602001909291908035906020019092919080357bffffffffffffffffffffffffffffffffffffffffffffffffffffffff1916906020019092919080359060200190929190505050610c8f565b005b34801561043d57600080fd5b50610472600480360381019080803573ffffffffffffffffffffffffffffffffffffffff169060200190929190505050610cfd565b005b61047c610d65565b005b6000610488610edb565b905090565b60075481565b600060145411151561050d576040517f08c379a00000000000000000000000000000000000000000000000000000000081526004018080602001828103825260128152602001807f54726164652079657420746f20626567696e000000000000000000000000000081525060200191505060405180910390fd5b6105156109a9565b50565b600660009054906101000a900473ffffffffffffffffffffffffffffffffffffffff1673ffffffffffffffffffffffffffffffffffffffff163373ffffffffffffffffffffffffffffffffffffffff1614151561057457600080fd5b600660009054906101000a900473ffffffffffffffffffffffffffffffffffffffff1673ffffffffffffffffffffffffffffffffffffffff167ff8df31144d9c2f0f6b59d69b8b98abd5459d07f2742c4df920b25aae33c6482060405160405180910390a26000600660006101000a81548173ffffffffffffffffffffffffffffffffffffffff021916908373ffffffffffffffffffffffffffffffffffffffff160217905550565b6000610627610f05565b905090565b600660009054906101000a900473ffffffffffffffffffffffffffffffffffffffff1681565b600061065c611eb8565b61068a863063bda71d047c010000000000000000000000000000000000000000000000000000000002610f2f565b90506106dd6040805190810160405280600881526020017f636f7079506174680000000000000000000000000000000000000000000000008152506106cd610f60565b836110129092919063ffffffff16565b6107276040805190810160405280600481526020017f626173650000000000000000000000000000000000000000000000000000000081525086836110129092919063ffffffff16565b6107716040805190810160405280600781526020017f73796d626f6c730000000000000000000000000000000000000000000000000081525085836110129092919063ffffffff16565b6107bb6040805190810160405280600581526020017f74696d657300000000000000000000000000000000000000000000000000000081525084836110459092919063ffffffff16565b6107da8782600a670de0b6b3a76400008115156107d457fe5b04611078565b91505095945050505050565b8160056000826000191660001916815260200190815260200160002060009054906101000a900473ffffffffffffffffffffffffffffffffffffffff1673ffffffffffffffffffffffffffffffffffffffff163373ffffffffffffffffffffffffffffffffffffffff161415156108eb576040517f08c379a00000000000000000000000000000000000000000000000000000000081526004018080602001828103825260288152602001807f536f75726365206d75737420626520746865206f7261636c65206f662074686581526020017f207265717565737400000000000000000000000000000000000000000000000081525060400191505060405180910390fd5b60056000826000191660001916815260200190815260200160002060006101000a81549073ffffffffffffffffffffffffffffffffffffffff021916905580600019167f7cc135e0cebb02c3480ae5d74d377283180a2601f8f644edf7987b009316c63a60405160405180910390a2600e60009054906101000a900460ff161515610990576001600e60006101000a81548160ff02191690831515021790555061099d565b61099c60075483611404565b5b81600781905550505050565b6000610b156109b661061d565b600c54600860006002811015156109c957fe5b018054600181600116156101000203166002900480601f016020809104026020016040519081016040528092919081815260200182805460018160011615610100020316600290048015610a5e5780601f10610a3357610100808354040283529160200191610a5e565b820191906000526020600020905b815481529060010190602001808311610a4157829003601f168201915b505050505060086001600281101515610a7357fe5b018054600181600116156101000203166002900480601f016020809104026020016040519081016040528092919081815260200182805460018160011615610100020316600290048015610b085780601f10610add57610100808354040283529160200191610b08565b820191906000526020600020905b815481529060010190602001808311610aeb57829003601f168201915b5050505050600d54610652565b905090565b6000601354141515610b94576040517f08c379a00000000000000000000000000000000000000000000000000000000081526004018080602001828103825260168152602001807f5377617020616c726561647920696e697469617465640000000000000000000081525060200191505060405180910390fd5b600582811515610ba057fe5b0434111515610c17576040517f08c379a00000000000000000000000000000000000000000000000000000000081526004018080602001828103825260178152602001807f496e73756666696369656e7420636f6c6c61746572616c00000000000000000081525060200191505060405180910390fd5b33600a6000600281101515610c2857fe5b0160006101000a81548173ffffffffffffffffffffffffffffffffffffffff021916908373ffffffffffffffffffffffffffffffffffffffff16021790555034600f6000600281101515610c7857fe5b018190555081601381905550806015819055505050565b600660009054906101000a900473ffffffffffffffffffffffffffffffffffffffff1673ffffffffffffffffffffffffffffffffffffffff163373ffffffffffffffffffffffffffffffffffffffff16141515610ceb57600080fd5b610cf7848484846114ff565b50505050565b600660009054906101000a900473ffffffffffffffffffffffffffffffffffffffff1673ffffffffffffffffffffffffffffffffffffffff163373ffffffffffffffffffffffffffffffffffffffff16141515610d5957600080fd5b610d628161169a565b50565b6000601354111515610ddf576040517f08c379a00000000000000000000000000000000000000000000000000000000081526004018080602001828103825260168152602001807f53776170206e6f742079657420696e697469617465640000000000000000000081525060200191505060405180910390fd5b6005601354811515610ded57fe5b0434111515610e64576040517f08c379a00000000000000000000000000000000000000000000000000000000081526004018080602001828103825260178152602001807f496e73756666696369656e7420636f6c6c61746572616c00000000000000000081525060200191505060405180910390fd5b33600a6001600281101515610e7557fe5b0160006101000a81548173ffffffffffffffffffffffffffffffffffffffff021916908373ffffffffffffffffffffffffffffffffffffffff16021790555034600f6001600281101515610ec557fe5b018190555042601481905550610ed9610493565b565b6000600260009054906101000a900473ffffffffffffffffffffffffffffffffffffffff16905090565b6000600360009054906101000a900473ffffffffffffffffffffffffffffffffffffffff16905090565b610f37611eb8565b610f3f611eb8565b610f5685858584611796909392919063ffffffff16565b9150509392505050565b606060086001600281101515610f7257fe5b0160405160200180807f72617465732e000000000000000000000000000000000000000000000000000081525060060182805460018160011615610100020316600290048015610ff95780601f10610fd7576101008083540402835291820191610ff9565b820191906000526020600020905b815481529060010190602001808311610fe5575b5050915050604051602081830303815290604052905090565b61102982846080015161185090919063ffffffff16565b61104081846080015161185090919063ffffffff16565b505050565b61105c82846080015161185090919063ffffffff16565b61107381846080015161187590919063ffffffff16565b505050565b600030600454604051602001808373ffffffffffffffffffffffffffffffffffffffff1673ffffffffffffffffffffffffffffffffffffffff166c01000000000000000000000000028152601401828152602001925050506040516020818303038152906040526040518082805190602001908083835b60208310151561111457805182526020820191506020810190506020830392506110ef565b6001836020036101000a038019825116818451168082178552505050505050905001915050604051809103902090506004548360600181815250508360056000836000191660001916815260200190815260200160002060006101000a81548173ffffffffffffffffffffffffffffffffffffffff021916908373ffffffffffffffffffffffffffffffffffffffff16021790555080600019167fb5e6e01e79f91267dc17b4e6314d5d4d03593d2ceee0fbb452b750bd70ea5af960405160405180910390a2600260009054906101000a900473ffffffffffffffffffffffffffffffffffffffff1673ffffffffffffffffffffffffffffffffffffffff16634000aea08584611223876118c3565b6040518463ffffffff167c0100000000000000000000000000000000000000000000000000000000028152600401808473ffffffffffffffffffffffffffffffffffffffff1673ffffffffffffffffffffffffffffffffffffffff16815260200183815260200180602001828103825283818151815260200191508051906020019080838360005b838110156112c65780820151818401526020810190506112ab565b50505050905090810190601f1680156112f35780820380516001836020036101000a031916815260200191505b50945050505050602060405180830381600087803b15801561131457600080fd5b505af1158015611328573d6000803e3d6000fd5b505050506040513d602081101561133e57600080fd5b810190808051906020019092919050505015156113e9576040517f08c379a00000000000000000000000000000000000000000000000000000000081526004018080602001828103825260238152602001807f756e61626c6520746f207472616e73666572416e6443616c6c20746f206f726181526020017f636c65000000000000000000000000000000000000000000000000000000000081525060400191505060405180910390fd5b60016004600082825401925050819055508090509392505050565b6000808284121561147f578383039150600d54826013540281151561142557fe5b04905080600f600060028110151561143957fe5b015401600f600060028110151561144c57fe5b018190555080600f600160028110151561146257fe5b015403600f600160028110151561147557fe5b01819055506114f8565b8284141561148c576114f9565b8284039150600d5482601354028115156114a257fe5b04905080600f60006002811015156114b657fe5b015403600f60006002811015156114c957fe5b018190555080600f60016002811015156114df57fe5b015401600f60016002811015156114f257fe5b01819055505b5b50505050565b600060056000866000191660001916815260200190815260200160002060009054906101000a900473ffffffffffffffffffffffffffffffffffffffff16905060056000866000191660001916815260200190815260200160002060006101000a81549073ffffffffffffffffffffffffffffffffffffffff021916905584600019167fe1fe3afa0f7f761ff0a8b89086790efd5140d2907ebd5b7ff6bfcb5e075fd4c560405160405180910390a28073ffffffffffffffffffffffffffffffffffffffff16636ee4d553868686866040518563ffffffff167c0100000000000000000000000000000000000000000000000000000000028152600401808560001916600019168152602001848152602001837bffffffffffffffffffffffffffffffffffffffffffffffffffffffff19167bffffffffffffffffffffffffffffffffffffffffffffffffffffffff19168152602001828152602001945050505050600060405180830381600087803b15801561167b57600080fd5b505af115801561168f573d6000803e3d6000fd5b505050505050505050565b600073ffffffffffffffffffffffffffffffffffffffff168173ffffffffffffffffffffffffffffffffffffffff16141515156116d657600080fd5b8073ffffffffffffffffffffffffffffffffffffffff16600660009054906101000a900473ffffffffffffffffffffffffffffffffffffffff1673ffffffffffffffffffffffffffffffffffffffff167f8be0079c531659141344cd1fd0a4f28419497f9722a3daafe3b4186f6b6457e060405160405180910390a380600660006101000a81548173ffffffffffffffffffffffffffffffffffffffff021916908373ffffffffffffffffffffffffffffffffffffffff16021790555050565b61179e611eb8565b6117ae8560800151610100611aee565b50838560000190600019169081600019168152505082856020019073ffffffffffffffffffffffffffffffffffffffff16908173ffffffffffffffffffffffffffffffffffffffff16815250508185604001907bffffffffffffffffffffffffffffffffffffffffffffffffffffffff191690817bffffffffffffffffffffffffffffffffffffffffffffffffffffffff191681525050849050949350505050565b61185d8260038351611b48565b6118708183611ca690919063ffffffff16565b505050565b6000811215156118905761188b82600083611b48565b6118bf565b6118be826001837fffffffffffffffffffffffffffffffffffffffffffffffffffffffffffffffff03611b48565b5b5050565b6060600360009054906101000a900473ffffffffffffffffffffffffffffffffffffffff1673ffffffffffffffffffffffffffffffffffffffff16634042994690507c01000000000000000000000000000000000000000000000000000000000260008084600001518560200151866040015187606001516001896080015160000151604051602401808973ffffffffffffffffffffffffffffffffffffffff1673ffffffffffffffffffffffffffffffffffffffff16815260200188815260200187600019166000191681526020018673ffffffffffffffffffffffffffffffffffffffff1673ffffffffffffffffffffffffffffffffffffffff168152602001857bffffffffffffffffffffffffffffffffffffffffffffffffffffffff19167bffffffffffffffffffffffffffffffffffffffffffffffffffffffff1916815260200184815260200183815260200180602001828103825283818151815260200191508051906020019080838360005b83811015611a51578082015181840152602081019050611a36565b50505050905090810190601f168015611a7e5780820380516001836020036101000a031916815260200191505b509950505050505050505050604051602081830303815290604052907bffffffffffffffffffffffffffffffffffffffffffffffffffffffff19166020820180517bffffffffffffffffffffffffffffffffffffffffffffffffffffffff83818316178352505050509050919050565b611af6611f26565b6000602083811515611b0457fe5b06141515611b2157602082811515611b1857fe5b06602003820191505b81836020018181525050604051808452600081528281016020016040525082905092915050565b601781111515611b7a57611b748160058460ff169060020a0260ff161784611cc890919063ffffffff16565b50611ca1565b60ff81111515611bc157611ba4601860058460ff169060020a021784611cc890919063ffffffff16565b50611bbb81600185611ce89092919063ffffffff16565b50611ca0565b61ffff81111515611c0957611bec601960058460ff169060020a021784611cc890919063ffffffff16565b50611c0381600285611ce89092919063ffffffff16565b50611c9f565b63ffffffff81111515611c5357611c36601a60058460ff169060020a021784611cc890919063ffffffff16565b50611c4d81600485611ce89092919063ffffffff16565b50611c9e565b67ffffffffffffffff81111515611c9d57611c84601b60058460ff169060020a021784611cc890919063ffffffff16565b50611c9b81600885611ce89092919063ffffffff16565b505b5b5b5b5b505050565b611cae611f26565b611cc083846000015151848551611d0a565b905092915050565b611cd0611f26565b611ce08384600001515184611dc7565b905092915050565b611cf0611f26565b611d01848560000151518585611e17565b90509392505050565b611d12611f26565b600080600085518511151515611d2757600080fd5b87602001518588011115611d5257611d51886002611d4b8b602001518b8a01611e78565b02611e94565b5b875180518860208301019450808988011115611d6e5788870182525b60208801935050505b602085101515611d9c5781518352602083019250602082019150602085039450611d77565b6001856020036101000a03905080198251168184511681811785525050879350505050949350505050565b611dcf611f26565b836020015183101515611dee57611ded846002866020015102611e94565b5b8351805160208583010184815381861415611e0a576001820183525b5050508390509392505050565b611e1f611f26565b600085602001518584011115611e3f57611e3e86600287860102611e94565b5b6001836101000a0390508551838682010185831982511617815281518588011115611e6a5784870182525b505085915050949350505050565b600081831115611e8a57829050611e8e565b8190505b92915050565b606082600001519050611ea78383611aee565b50611eb28382611ca6565b50505050565b60c06040519081016040528060008019168152602001600073ffffffffffffffffffffffffffffffffffffffff16815260200160007bffffffffffffffffffffffffffffffffffffffffffffffffffffffff1916815260200160008152602001611f20611f40565b81525090565b604080519081016040528060608152602001600081525090565b6040805190810160405280606081526020016000815250905600a165627a7a723058201110b2650d0c630f55e3f01667a020315589e0168aaa0747ec535e401a0c64ae0029",
  "source": "pragma solidity 0.4.24;\n\nimport \"chainlink/contracts/ChainlinkClient.sol\";\nimport \"openzeppelin-solidity/contracts/ownership/Ownable.sol\";\n\ninterface ForexTradeFactoryContract {\n    function registerCounterparty();\n}\n\n/**\n * @title MyContract is an example contract which requests data from\n * the Chainlink network\n * @dev This contract is designed to work on multiple networks, including\n * local test networks\n */\ncontract ForexTrade is ChainlinkClient, Ownable {\n    // solium-disable-next-line zeppelin/no-arithmetic-operations\n    uint256 private constant ORACLE_PAYMENT = LINK / 10;\n    int256 public rate;\n\n    /* Core */\n    string[2] currencies; // [\"USD\", \"EUR\"]\n    address[2] counterparties; // [\"Alice\", \"Bob\"]\n    // Alice is betting on USD gaining value\n\n    bytes32 jobId;\n    int256 times = 10000; // multiply oracle result by 10,000: 1.345% = 13450;\n    bool ratesInitiated = false;\n\n    uint256[2] accountCollateral; // initial values ~= notional / 5\n    uint256[2] accountReceipts; // initial values = 0 // still need this??\n\n    uint256 notional; // wei\n    uint256 tradePeriodStart; // timestamp\n    uint256 tradePeriodEnd; // timestamp\n\n    /**\n   * @notice Deploy the contract with a specified address for the LINK\n   * and Oracle contract addresses\n   * @dev Sets the storage for the specified addresses\n   * @param _link The address of the LINK token contract\n   * @param _oracle The address of the Oracle contract\n   */\n    constructor(\n        address _link,\n        address _oracle,\n        string _currencyA,\n        string _currencyB,\n        bytes32 _jobId,\n        address _factoryAddress\n    ) public {\n        setChainlinkToken(_link);\n        setChainlinkOracle(_oracle);\n        currencies[0] = _currencyA;\n        currencies[1] = _currencyB;\n        counterparties[0] = tx.origin;\n        jobId = _jobId;\n\n        ForexTradeFactoryContract factoryContract = ForexTradeFactoryContract(_factoryAddress);\n    }\n\n    /* Chainlink functions */\n\n    /**\n   * @notice Returns the address of the LINK token\n   * @dev This is the public implementation for chainlinkTokenAddress, which is\n   * an internal method of the ChainlinkClient contract\n   */\n    function getChainlinkToken() public view returns (address) {\n        return chainlinkTokenAddress();\n    }\n\n    /**\n   * @notice Returns the address of the Oracle contract\n   * @dev This is the public implementation for chainlinkOracleAddress, which is\n   * an internal method of the ChainlinkClient contract\n   */\n    function getOracle() public view returns (address) {\n        return chainlinkOracleAddress();\n    }\n\n    /**\n   * @notice Creates a request to the stored Oracle contract address\n   * @dev Calls createRequestTo using the stored Oracle contract address\n   * for the first parameter\n   */\n    function createRequest() public returns (bytes32) {\n        return\n            createRequestTo(\n                getOracle(),\n                jobId,\n                currencies[0],\n                currencies[1],\n                times\n            );\n    }\n\n    /**\n   * @notice Creates a request to the specified Oracle contract address\n   * @dev This function ignores the stored Oracle contract address and\n   * will instead send the request to the address specified\n   * @param _oracle The Oracle contract address to send the request to\n   * @param _jobId The bytes32 JobID to be executed\n   * @param _baseCurrency base currency\n   * @param _symbol pair currency\n   * @param _times The number to multiply the result by\n   */\n    function createRequestTo(\n        address _oracle,\n        bytes32 _jobId,\n        string _baseCurrency, // USD\n        string _symbol, // EUR\n        int256 _times\n    ) public returns (bytes32 requestId) {\n        Chainlink.Request memory req = buildChainlinkRequest(\n            _jobId,\n            this,\n            this.fulfill.selector\n        );\n        req.add(\"copyPath\", getCopyPath());\n        req.add(\"base\", _baseCurrency);\n        req.add(\"symbols\", _symbol);\n        req.addInt(\"times\", _times);\n        requestId = sendChainlinkRequestTo(_oracle, req, ORACLE_PAYMENT);\n    }\n\n    function getCopyPath() internal view returns (string) {\n        return string(abi.encodePacked(\"rates.\", currencies[1]));\n    }\n\n    /**\n   * @notice The fulfill method from requests created by this contract\n   * @dev The recordChainlinkFulfillment protects this function from being called\n   * by anyone other than the oracle address that the request was sent to\n   * @param _requestId The ID that was generated for the request\n   * @param _rate The answer provided by the oracle\n   */\n    function fulfill(bytes32 _requestId, int256 _rate)\n        public\n        recordChainlinkFulfillment(_requestId)\n    {\n        if (!ratesInitiated) {\n            ratesInitiated = true;\n        } else {\n            // (oldRate, newRate)\n            runRepricing(rate, _rate);\n        }\n        rate = _rate;\n    }\n\n    function runRepricing(int256 oldRate, int256 newRate) private {\n        // currencies = [\"USD\", \"EUR\"]\n        // counterparties = [\"addr0\", \"addr1\"]\n        // notional = 1,000,000\n        // accountCollateral pre = [200000, 200000]\n        // oldRate: USD/EUR = 0.9000 * 10000 = 9000\n        // newRate: USD/EUR = 0.9200 * 10000 = 9200 (USD appreciated in this ex.)\n\n        uint256 changeInRate;\n        uint256 changeInValue;\n\n        if (oldRate < newRate) {\n            // currencies[0] is the currency that appreciated\n            changeInRate = uint256(newRate) - uint256(oldRate); // 9200 - 9000 = 200\n            changeInValue = (notional * changeInRate) / uint256(times); // 1000000 * 200 / 10000 = 20000\n            accountCollateral[0] = accountCollateral[0] + changeInValue;\n            accountCollateral[1] = accountCollateral[1] - changeInValue;\n            /* accountCollateral post TX = [220000, 180000] */\n        } else if (oldRate == newRate) {\n            return;\n        } else {\n            changeInRate = uint256(oldRate) - uint256(newRate);\n            changeInValue = (notional * changeInRate) / uint256(times);\n            accountCollateral[0] = accountCollateral[0] - changeInValue;\n            accountCollateral[1] = accountCollateral[1] + changeInValue;\n        }\n\n        // add liquidation condition for less than 15% collateralized (initial = 20%)\n\n    }\n\n    /**\n   * @notice Call this method if no response is received within 5 minutes\n   * @param _requestId The ID that was generated for the request to cancel\n   * @param _payment The payment specified for the request to cancel\n   * @param _callbackFunctionId The bytes4 callback function ID specified for\n   * the request to cancel\n   * @param _expiration The expiration generated for the request to cancel\n   */\n    function cancelRequest(\n        bytes32 _requestId,\n        uint256 _payment,\n        bytes4 _callbackFunctionId,\n        uint256 _expiration\n    ) public onlyOwner {\n        cancelChainlinkRequest(\n            _requestId,\n            _payment,\n            _callbackFunctionId,\n            _expiration\n        );\n    }\n\n    /* Core functions --> one contract per swap */\n\n    function initiateTrade(uint256 _notional, uint256 _tradePeriodEnd)\n        public\n        payable\n        isNotInitiated\n    {\n        require(msg.value > _notional / 5, \"Insufficient collateral\"); // initiate at max 5x leverage\n\n        counterparties[0] = msg.sender;\n        accountCollateral[0] = msg.value;\n        notional = _notional;\n\n        tradePeriodEnd = _tradePeriodEnd;\n    }\n\n    modifier isNotInitiated() {\n        require(notional == 0, \"Swap already initiated\");\n        _;\n    }\n\n    modifier isInitiated() {\n        require(notional > 0, \"Swap not yet initiated\");\n        _;\n    }\n\n    // Contract must be funded with LINK for this function to run\n    function acceptTrade() public payable isInitiated {\n        require(msg.value > notional / 5, \"Insufficient collateral\");\n\n        counterparties[1] = msg.sender;\n        accountCollateral[1] = msg.value;\n\n        tradePeriodStart = block.timestamp;\n        updateRates();\n    }\n\n    // Contract must be funded with LINK for this function to run\n    function updateRates() public {\n        require(tradePeriodStart > 0, \"Trade yet to begin\");\n        createRequest();\n    }\n}\n",
  "sourcePath": "/Users/michaeljcohen/Desktop/projects/forex-trader/contracts/ForexTrade.sol",
  "compiler": {
    "name": "solc",
    "version": "0.4.24+commit.e67f0147.Emscripten.clang"
  },
  "schemaVersion": "3.0.2",
  "updatedAt": "2019-12-06T04:18:21.501Z",
  "devdoc": {
    "methods": {
      "cancelRequest(bytes32,uint256,bytes4,uint256)": {
        "params": {
          "_callbackFunctionId": "The bytes4 callback function ID specified for the request to cancel",
          "_expiration": "The expiration generated for the request to cancel",
          "_payment": "The payment specified for the request to cancel",
          "_requestId": "The ID that was generated for the request to cancel"
        }
      },
      "createRequest()": {
        "details": "Calls createRequestTo using the stored Oracle contract address for the first parameter"
      },
      "createRequestTo(address,bytes32,string,string,int256)": {
        "details": "This function ignores the stored Oracle contract address and will instead send the request to the address specified",
        "params": {
          "_baseCurrency": "base currency",
          "_jobId": "The bytes32 JobID to be executed",
          "_oracle": "The Oracle contract address to send the request to",
          "_symbol": "pair currency",
          "_times": "The number to multiply the result by"
        }
      },
      "fulfill(bytes32,int256)": {
        "details": "The recordChainlinkFulfillment protects this function from being called by anyone other than the oracle address that the request was sent to",
        "params": {
          "_rate": "The answer provided by the oracle",
          "_requestId": "The ID that was generated for the request"
        }
      },
      "getChainlinkToken()": {
        "details": "This is the public implementation for chainlinkTokenAddress, which is an internal method of the ChainlinkClient contract"
      },
      "getOracle()": {
        "details": "This is the public implementation for chainlinkOracleAddress, which is an internal method of the ChainlinkClient contract"
      },
      "renounceOwnership()": {
        "details": "Allows the current owner to relinquish control of the contract."
      },
      "transferOwnership(address)": {
        "details": "Allows the current owner to transfer control of the contract to a newOwner.",
        "params": {
          "_newOwner": "The address to transfer ownership to."
        }
      }
    },
    "title": "MyContract is an example contract which requests data from the Chainlink network"
  },
  "userdoc": {
    "methods": {
      "cancelRequest(bytes32,uint256,bytes4,uint256)": {
        "notice": "Call this method if no response is received within 5 minutes"
      },
      "createRequest()": {
        "notice": "Creates a request to the stored Oracle contract address"
      },
      "createRequestTo(address,bytes32,string,string,int256)": {
        "notice": "Creates a request to the specified Oracle contract address"
      },
      "fulfill(bytes32,int256)": {
        "notice": "The fulfill method from requests created by this contract"
      },
      "getChainlinkToken()": {
        "notice": "Returns the address of the LINK token"
      },
      "getOracle()": {
        "notice": "Returns the address of the Oracle contract"
      },
      "renounceOwnership()": {
        "notice": "Renouncing to ownership will leave the contract without an owner. It will not be possible to call the functions with the `onlyOwner` modifier anymore."
      }
    }
  }
}