{
  "contractName": "ForexTradeFactory",
  "abi": [
    {
      "inputs": [
        {
          "name": "_jobId",
          "type": "bytes32"
        }
      ],
      "payable": false,
      "stateMutability": "nonpayable",
      "type": "constructor",
      "signature": "constructor"
    },
    {
      "constant": false,
      "inputs": [
        {
          "name": "_currencyA",
          "type": "string"
        },
        {
          "name": "_currencyB",
          "type": "string"
        }
      ],
      "name": "createTrade",
      "outputs": [],
      "payable": false,
      "stateMutability": "nonpayable",
      "type": "function",
      "signature": "0xe23b23f6"
    },
    {
      "constant": false,
      "inputs": [],
      "name": "registerCounterparty",
      "outputs": [],
      "payable": false,
      "stateMutability": "nonpayable",
      "type": "function",
      "signature": "0x74531d51"
    },
    {
      "constant": true,
      "inputs": [
        {
          "name": "_counterparty",
          "type": "address"
        }
      ],
      "name": "getTradesByAddress",
      "outputs": [
        {
          "name": "_trades",
          "type": "address[]"
        }
      ],
      "payable": false,
      "stateMutability": "view",
      "type": "function",
      "signature": "0xb4144b79"
    }
  ],
  "bytecode": "0x60806040527320fe562d797a42dcb3399062ae9546cd06f63280600260006101000a81548173ffffffffffffffffffffffffffffffffffffffff021916908373ffffffffffffffffffffffffffffffffffffffff160217905550734a3fbbb385b5efeb4bc84a25aaadcd644bd09721600360006101000a81548173ffffffffffffffffffffffffffffffffffffffff021916908373ffffffffffffffffffffffffffffffffffffffff1602179055503480156100ba57600080fd5b50604051602080612aaf833981018060405281019080805190602001909291905050508060048160001916905550506129b7806100f86000396000f300608060405260043610610057576000357c0100000000000000000000000000000000000000000000000000000000900463ffffffff16806374531d511461005c578063b4144b7914610073578063e23b23f61461010b575b600080fd5b34801561006857600080fd5b506100716101ba565b005b34801561007f57600080fd5b506100b4600480360381019080803573ffffffffffffffffffffffffffffffffffffffff169060200190929190505050610326565b6040518080602001828103825283818151815260200191508051906020019060200280838360005b838110156100f75780820151818401526020810190506100dc565b505050509050019250505060405180910390f35b34801561011757600080fd5b506101b8600480360381019080803590602001908201803590602001908080601f0160208091040260200160405190810160405280939291908181526020018383808284378201915050505050509192919290803590602001908201803590602001908080601f01602080910402602001604051908101604052809392919081815260200183838082843782019150505050505091929192905050506103f2565b005b60011515600160003373ffffffffffffffffffffffffffffffffffffffff1673ffffffffffffffffffffffffffffffffffffffff16815260200190815260200160002060009054906101000a900460ff161515141515610282576040517f08c379a00000000000000000000000000000000000000000000000000000000081526004018080602001828103825260108152602001807f496e76616c696420636f6e74726163740000000000000000000000000000000081525060200191505060405180910390fd5b6000803273ffffffffffffffffffffffffffffffffffffffff1673ffffffffffffffffffffffffffffffffffffffff1681526020019081526020016000203390806001815401808255809150509060018203906000526020600020016000909192909190916101000a81548173ffffffffffffffffffffffffffffffffffffffff021916908373ffffffffffffffffffffffffffffffffffffffff16021790555050565b60606000808373ffffffffffffffffffffffffffffffffffffffff1673ffffffffffffffffffffffffffffffffffffffff1681526020019081526020016000208054806020026020016040519081016040528092919081815260200182805480156103e657602002820191906000526020600020905b8160009054906101000a900473ffffffffffffffffffffffffffffffffffffffff1673ffffffffffffffffffffffffffffffffffffffff168152602001906001019080831161039c575b50505050509050919050565b6000600260009054906101000a900473ffffffffffffffffffffffffffffffffffffffff16600360009054906101000a900473ffffffffffffffffffffffffffffffffffffffff168484600454306104486106e8565b808773ffffffffffffffffffffffffffffffffffffffff1673ffffffffffffffffffffffffffffffffffffffff1681526020018673ffffffffffffffffffffffffffffffffffffffff1673ffffffffffffffffffffffffffffffffffffffff168152602001806020018060200185600019166000191681526020018473ffffffffffffffffffffffffffffffffffffffff1673ffffffffffffffffffffffffffffffffffffffff168152602001838103835287818151815260200191508051906020019080838360005b8381101561052d578082015181840152602081019050610512565b50505050905090810190601f16801561055a5780820380516001836020036101000a031916815260200191505b50838103825286818151815260200191508051906020019080838360005b83811015610593578082015181840152602081019050610578565b50505050905090810190601f1680156105c05780820380516001836020036101000a031916815260200191505b5098505050505050505050604051809103906000f0801580156105e7573d6000803e3d6000fd5b5090506000803373ffffffffffffffffffffffffffffffffffffffff1673ffffffffffffffffffffffffffffffffffffffff1681526020019081526020016000208190806001815401808255809150509060018203906000526020600020016000909192909190916101000a81548173ffffffffffffffffffffffffffffffffffffffff021916908373ffffffffffffffffffffffffffffffffffffffff1602179055505060018060008373ffffffffffffffffffffffffffffffffffffffff1673ffffffffffffffffffffffffffffffffffffffff16815260200190815260200160002060006101000a81548160ff021916908315150217905550505050565b604051612293806106f983390190560060806040526001600455612710600d556000600e60006101000a81548160ff0219169083151502179055503480156200003757600080fd5b506040516200229338038062002293833981018060405281019080805190602001909291908051906020019092919080518201929190602001805182019291906020018051906020019092919080519060200190929190505050600033600660006101000a81548173ffffffffffffffffffffffffffffffffffffffff021916908373ffffffffffffffffffffffffffffffffffffffff160217905550620000ee87620001c6640100000000026401000000009004565b62000108866200020a640100000000026401000000009004565b84600860006002811015156200011a57fe5b019080519060200190620001309291906200024e565b5083600860016002811015156200014357fe5b019080519060200190620001599291906200024e565b5032600a60006002811015156200016c57fe5b0160006101000a81548173ffffffffffffffffffffffffffffffffffffffff021916908373ffffffffffffffffffffffffffffffffffffffff16021790555082600c816000191690555081905050505050505050620002fd565b80600260006101000a81548173ffffffffffffffffffffffffffffffffffffffff021916908373ffffffffffffffffffffffffffffffffffffffff16021790555050565b80600360006101000a81548173ffffffffffffffffffffffffffffffffffffffff021916908373ffffffffffffffffffffffffffffffffffffffff16021790555050565b828054600181600116156101000203166002900490600052602060002090601f016020900481019282601f106200029157805160ff1916838001178555620002c2565b82800160010185558215620002c2579182015b82811115620002c1578251825591602001919060010190620002a4565b5b509050620002d19190620002d5565b5090565b620002fa91905b80821115620002f6576000816000905550600101620002dc565b5090565b90565b611f86806200030d6000396000f3006080604052600436106100c5576000357c0100000000000000000000000000000000000000000000000000000000900463ffffffff168063165d35e1146100ca5780632c4e722e146101215780633c3821f41461014c578063715018a614610163578063833b1fce1461017a5780638da5cb5b146101d1578063995f789214610228578063bda71d041461032b578063c957907814610366578063c9f746a014610399578063ec65d0f8146103c3578063f2fde38b14610431578063fa4cbc4114610474575b600080fd5b3480156100d657600080fd5b506100df61047e565b604051808273ffffffffffffffffffffffffffffffffffffffff1673ffffffffffffffffffffffffffffffffffffffff16815260200191505060405180910390f35b34801561012d57600080fd5b5061013661048d565b6040518082815260200191505060405180910390f35b34801561015857600080fd5b50610161610493565b005b34801561016f57600080fd5b50610178610518565b005b34801561018657600080fd5b5061018f61061d565b604051808273ffffffffffffffffffffffffffffffffffffffff1673ffffffffffffffffffffffffffffffffffffffff16815260200191505060405180910390f35b3480156101dd57600080fd5b506101e661062c565b604051808273ffffffffffffffffffffffffffffffffffffffff1673ffffffffffffffffffffffffffffffffffffffff16815260200191505060405180910390f35b34801561023457600080fd5b5061030d600480360381019080803573ffffffffffffffffffffffffffffffffffffffff1690602001909291908035600019169060200190929190803590602001908201803590602001908080601f0160208091040260200160405190810160405280939291908181526020018383808284378201915050505050509192919290803590602001908201803590602001908080601f016020809104026020016040519081016040528093929190818152602001838380828437820191505050505050919291929080359060200190929190505050610652565b60405180826000191660001916815260200191505060405180910390f35b34801561033757600080fd5b506103646004803603810190808035600019169060200190929190803590602001909291905050506107e6565b005b34801561037257600080fd5b5061037b6109a9565b60405180826000191660001916815260200191505060405180910390f35b6103c16004803603810190808035906020019092919080359060200190929190505050610b1a565b005b3480156103cf57600080fd5b5061042f60048036038101908080356000191690602001909291908035906020019092919080357bffffffffffffffffffffffffffffffffffffffffffffffffffffffff1916906020019092919080359060200190929190505050610c8f565b005b34801561043d57600080fd5b50610472600480360381019080803573ffffffffffffffffffffffffffffffffffffffff169060200190929190505050610cfd565b005b61047c610d65565b005b6000610488610edb565b905090565b60075481565b600060145411151561050d576040517f08c379a00000000000000000000000000000000000000000000000000000000081526004018080602001828103825260128152602001807f54726164652079657420746f20626567696e000000000000000000000000000081525060200191505060405180910390fd5b6105156109a9565b50565b600660009054906101000a900473ffffffffffffffffffffffffffffffffffffffff1673ffffffffffffffffffffffffffffffffffffffff163373ffffffffffffffffffffffffffffffffffffffff1614151561057457600080fd5b600660009054906101000a900473ffffffffffffffffffffffffffffffffffffffff1673ffffffffffffffffffffffffffffffffffffffff167ff8df31144d9c2f0f6b59d69b8b98abd5459d07f2742c4df920b25aae33c6482060405160405180910390a26000600660006101000a81548173ffffffffffffffffffffffffffffffffffffffff021916908373ffffffffffffffffffffffffffffffffffffffff160217905550565b6000610627610f05565b905090565b600660009054906101000a900473ffffffffffffffffffffffffffffffffffffffff1681565b600061065c611eb8565b61068a863063bda71d047c010000000000000000000000000000000000000000000000000000000002610f2f565b90506106dd6040805190810160405280600881526020017f636f7079506174680000000000000000000000000000000000000000000000008152506106cd610f60565b836110129092919063ffffffff16565b6107276040805190810160405280600481526020017f626173650000000000000000000000000000000000000000000000000000000081525086836110129092919063ffffffff16565b6107716040805190810160405280600781526020017f73796d626f6c730000000000000000000000000000000000000000000000000081525085836110129092919063ffffffff16565b6107bb6040805190810160405280600581526020017f74696d657300000000000000000000000000000000000000000000000000000081525084836110459092919063ffffffff16565b6107da8782600a670de0b6b3a76400008115156107d457fe5b04611078565b91505095945050505050565b8160056000826000191660001916815260200190815260200160002060009054906101000a900473ffffffffffffffffffffffffffffffffffffffff1673ffffffffffffffffffffffffffffffffffffffff163373ffffffffffffffffffffffffffffffffffffffff161415156108eb576040517f08c379a00000000000000000000000000000000000000000000000000000000081526004018080602001828103825260288152602001807f536f75726365206d75737420626520746865206f7261636c65206f662074686581526020017f207265717565737400000000000000000000000000000000000000000000000081525060400191505060405180910390fd5b60056000826000191660001916815260200190815260200160002060006101000a81549073ffffffffffffffffffffffffffffffffffffffff021916905580600019167f7cc135e0cebb02c3480ae5d74d377283180a2601f8f644edf7987b009316c63a60405160405180910390a2600e60009054906101000a900460ff161515610990576001600e60006101000a81548160ff02191690831515021790555061099d565b61099c60075483611404565b5b81600781905550505050565b6000610b156109b661061d565b600c54600860006002811015156109c957fe5b018054600181600116156101000203166002900480601f016020809104026020016040519081016040528092919081815260200182805460018160011615610100020316600290048015610a5e5780601f10610a3357610100808354040283529160200191610a5e565b820191906000526020600020905b815481529060010190602001808311610a4157829003601f168201915b505050505060086001600281101515610a7357fe5b018054600181600116156101000203166002900480601f016020809104026020016040519081016040528092919081815260200182805460018160011615610100020316600290048015610b085780601f10610add57610100808354040283529160200191610b08565b820191906000526020600020905b815481529060010190602001808311610aeb57829003601f168201915b5050505050600d54610652565b905090565b6000601354141515610b94576040517f08c379a00000000000000000000000000000000000000000000000000000000081526004018080602001828103825260168152602001807f5377617020616c726561647920696e697469617465640000000000000000000081525060200191505060405180910390fd5b600582811515610ba057fe5b0434111515610c17576040517f08c379a00000000000000000000000000000000000000000000000000000000081526004018080602001828103825260178152602001807f496e73756666696369656e7420636f6c6c61746572616c00000000000000000081525060200191505060405180910390fd5b33600a6000600281101515610c2857fe5b0160006101000a81548173ffffffffffffffffffffffffffffffffffffffff021916908373ffffffffffffffffffffffffffffffffffffffff16021790555034600f6000600281101515610c7857fe5b018190555081601381905550806015819055505050565b600660009054906101000a900473ffffffffffffffffffffffffffffffffffffffff1673ffffffffffffffffffffffffffffffffffffffff163373ffffffffffffffffffffffffffffffffffffffff16141515610ceb57600080fd5b610cf7848484846114ff565b50505050565b600660009054906101000a900473ffffffffffffffffffffffffffffffffffffffff1673ffffffffffffffffffffffffffffffffffffffff163373ffffffffffffffffffffffffffffffffffffffff16141515610d5957600080fd5b610d628161169a565b50565b6000601354111515610ddf576040517f08c379a00000000000000000000000000000000000000000000000000000000081526004018080602001828103825260168152602001807f53776170206e6f742079657420696e697469617465640000000000000000000081525060200191505060405180910390fd5b6005601354811515610ded57fe5b0434111515610e64576040517f08c379a00000000000000000000000000000000000000000000000000000000081526004018080602001828103825260178152602001807f496e73756666696369656e7420636f6c6c61746572616c00000000000000000081525060200191505060405180910390fd5b33600a6001600281101515610e7557fe5b0160006101000a81548173ffffffffffffffffffffffffffffffffffffffff021916908373ffffffffffffffffffffffffffffffffffffffff16021790555034600f6001600281101515610ec557fe5b018190555042601481905550610ed9610493565b565b6000600260009054906101000a900473ffffffffffffffffffffffffffffffffffffffff16905090565b6000600360009054906101000a900473ffffffffffffffffffffffffffffffffffffffff16905090565b610f37611eb8565b610f3f611eb8565b610f5685858584611796909392919063ffffffff16565b9150509392505050565b606060086001600281101515610f7257fe5b0160405160200180807f72617465732e000000000000000000000000000000000000000000000000000081525060060182805460018160011615610100020316600290048015610ff95780601f10610fd7576101008083540402835291820191610ff9565b820191906000526020600020905b815481529060010190602001808311610fe5575b5050915050604051602081830303815290604052905090565b61102982846080015161185090919063ffffffff16565b61104081846080015161185090919063ffffffff16565b505050565b61105c82846080015161185090919063ffffffff16565b61107381846080015161187590919063ffffffff16565b505050565b600030600454604051602001808373ffffffffffffffffffffffffffffffffffffffff1673ffffffffffffffffffffffffffffffffffffffff166c01000000000000000000000000028152601401828152602001925050506040516020818303038152906040526040518082805190602001908083835b60208310151561111457805182526020820191506020810190506020830392506110ef565b6001836020036101000a038019825116818451168082178552505050505050905001915050604051809103902090506004548360600181815250508360056000836000191660001916815260200190815260200160002060006101000a81548173ffffffffffffffffffffffffffffffffffffffff021916908373ffffffffffffffffffffffffffffffffffffffff16021790555080600019167fb5e6e01e79f91267dc17b4e6314d5d4d03593d2ceee0fbb452b750bd70ea5af960405160405180910390a2600260009054906101000a900473ffffffffffffffffffffffffffffffffffffffff1673ffffffffffffffffffffffffffffffffffffffff16634000aea08584611223876118c3565b6040518463ffffffff167c0100000000000000000000000000000000000000000000000000000000028152600401808473ffffffffffffffffffffffffffffffffffffffff1673ffffffffffffffffffffffffffffffffffffffff16815260200183815260200180602001828103825283818151815260200191508051906020019080838360005b838110156112c65780820151818401526020810190506112ab565b50505050905090810190601f1680156112f35780820380516001836020036101000a031916815260200191505b50945050505050602060405180830381600087803b15801561131457600080fd5b505af1158015611328573d6000803e3d6000fd5b505050506040513d602081101561133e57600080fd5b810190808051906020019092919050505015156113e9576040517f08c379a00000000000000000000000000000000000000000000000000000000081526004018080602001828103825260238152602001807f756e61626c6520746f207472616e73666572416e6443616c6c20746f206f726181526020017f636c65000000000000000000000000000000000000000000000000000000000081525060400191505060405180910390fd5b60016004600082825401925050819055508090509392505050565b6000808284121561147f578383039150600d54826013540281151561142557fe5b04905080600f600060028110151561143957fe5b015401600f600060028110151561144c57fe5b018190555080600f600160028110151561146257fe5b015403600f600160028110151561147557fe5b01819055506114f8565b8284141561148c576114f9565b8284039150600d5482601354028115156114a257fe5b04905080600f60006002811015156114b657fe5b015403600f60006002811015156114c957fe5b018190555080600f60016002811015156114df57fe5b015401600f60016002811015156114f257fe5b01819055505b5b50505050565b600060056000866000191660001916815260200190815260200160002060009054906101000a900473ffffffffffffffffffffffffffffffffffffffff16905060056000866000191660001916815260200190815260200160002060006101000a81549073ffffffffffffffffffffffffffffffffffffffff021916905584600019167fe1fe3afa0f7f761ff0a8b89086790efd5140d2907ebd5b7ff6bfcb5e075fd4c560405160405180910390a28073ffffffffffffffffffffffffffffffffffffffff16636ee4d553868686866040518563ffffffff167c0100000000000000000000000000000000000000000000000000000000028152600401808560001916600019168152602001848152602001837bffffffffffffffffffffffffffffffffffffffffffffffffffffffff19167bffffffffffffffffffffffffffffffffffffffffffffffffffffffff19168152602001828152602001945050505050600060405180830381600087803b15801561167b57600080fd5b505af115801561168f573d6000803e3d6000fd5b505050505050505050565b600073ffffffffffffffffffffffffffffffffffffffff168173ffffffffffffffffffffffffffffffffffffffff16141515156116d657600080fd5b8073ffffffffffffffffffffffffffffffffffffffff16600660009054906101000a900473ffffffffffffffffffffffffffffffffffffffff1673ffffffffffffffffffffffffffffffffffffffff167f8be0079c531659141344cd1fd0a4f28419497f9722a3daafe3b4186f6b6457e060405160405180910390a380600660006101000a81548173ffffffffffffffffffffffffffffffffffffffff021916908373ffffffffffffffffffffffffffffffffffffffff16021790555050565b61179e611eb8565b6117ae8560800151610100611aee565b50838560000190600019169081600019168152505082856020019073ffffffffffffffffffffffffffffffffffffffff16908173ffffffffffffffffffffffffffffffffffffffff16815250508185604001907bffffffffffffffffffffffffffffffffffffffffffffffffffffffff191690817bffffffffffffffffffffffffffffffffffffffffffffffffffffffff191681525050849050949350505050565b61185d8260038351611b48565b6118708183611ca690919063ffffffff16565b505050565b6000811215156118905761188b82600083611b48565b6118bf565b6118be826001837fffffffffffffffffffffffffffffffffffffffffffffffffffffffffffffffff03611b48565b5b5050565b6060600360009054906101000a900473ffffffffffffffffffffffffffffffffffffffff1673ffffffffffffffffffffffffffffffffffffffff16634042994690507c01000000000000000000000000000000000000000000000000000000000260008084600001518560200151866040015187606001516001896080015160000151604051602401808973ffffffffffffffffffffffffffffffffffffffff1673ffffffffffffffffffffffffffffffffffffffff16815260200188815260200187600019166000191681526020018673ffffffffffffffffffffffffffffffffffffffff1673ffffffffffffffffffffffffffffffffffffffff168152602001857bffffffffffffffffffffffffffffffffffffffffffffffffffffffff19167bffffffffffffffffffffffffffffffffffffffffffffffffffffffff1916815260200184815260200183815260200180602001828103825283818151815260200191508051906020019080838360005b83811015611a51578082015181840152602081019050611a36565b50505050905090810190601f168015611a7e5780820380516001836020036101000a031916815260200191505b509950505050505050505050604051602081830303815290604052907bffffffffffffffffffffffffffffffffffffffffffffffffffffffff19166020820180517bffffffffffffffffffffffffffffffffffffffffffffffffffffffff83818316178352505050509050919050565b611af6611f26565b6000602083811515611b0457fe5b06141515611b2157602082811515611b1857fe5b06602003820191505b81836020018181525050604051808452600081528281016020016040525082905092915050565b601781111515611b7a57611b748160058460ff169060020a0260ff161784611cc890919063ffffffff16565b50611ca1565b60ff81111515611bc157611ba4601860058460ff169060020a021784611cc890919063ffffffff16565b50611bbb81600185611ce89092919063ffffffff16565b50611ca0565b61ffff81111515611c0957611bec601960058460ff169060020a021784611cc890919063ffffffff16565b50611c0381600285611ce89092919063ffffffff16565b50611c9f565b63ffffffff81111515611c5357611c36601a60058460ff169060020a021784611cc890919063ffffffff16565b50611c4d81600485611ce89092919063ffffffff16565b50611c9e565b67ffffffffffffffff81111515611c9d57611c84601b60058460ff169060020a021784611cc890919063ffffffff16565b50611c9b81600885611ce89092919063ffffffff16565b505b5b5b5b5b505050565b611cae611f26565b611cc083846000015151848551611d0a565b905092915050565b611cd0611f26565b611ce08384600001515184611dc7565b905092915050565b611cf0611f26565b611d01848560000151518585611e17565b90509392505050565b611d12611f26565b600080600085518511151515611d2757600080fd5b87602001518588011115611d5257611d51886002611d4b8b602001518b8a01611e78565b02611e94565b5b875180518860208301019450808988011115611d6e5788870182525b60208801935050505b602085101515611d9c5781518352602083019250602082019150602085039450611d77565b6001856020036101000a03905080198251168184511681811785525050879350505050949350505050565b611dcf611f26565b836020015183101515611dee57611ded846002866020015102611e94565b5b8351805160208583010184815381861415611e0a576001820183525b5050508390509392505050565b611e1f611f26565b600085602001518584011115611e3f57611e3e86600287860102611e94565b5b6001836101000a0390508551838682010185831982511617815281518588011115611e6a5784870182525b505085915050949350505050565b600081831115611e8a57829050611e8e565b8190505b92915050565b606082600001519050611ea78383611aee565b50611eb28382611ca6565b50505050565b60c06040519081016040528060008019168152602001600073ffffffffffffffffffffffffffffffffffffffff16815260200160007bffffffffffffffffffffffffffffffffffffffffffffffffffffffff1916815260200160008152602001611f20611f40565b81525090565b604080519081016040528060608152602001600081525090565b6040805190810160405280606081526020016000815250905600a165627a7a723058201110b2650d0c630f55e3f01667a020315589e0168aaa0747ec535e401a0c64ae0029a165627a7a72305820ee0faa6ae3fc74f3aff6a1a9a18880052e5c84b7691970c301a986d3022323bd0029",
  "source": "pragma solidity 0.4.24;\n\nimport \"./ForexTrade.sol\";\n\ncontract ForexTradeFactory {\n    mapping(address => address[]) tradesByAddress; // user address => trade contract address\n    mapping(address => bool) contractExists;\n\n    address ropstenLINKAddress = 0x20fE562d797A42Dcb3399062AE9546cd06f63280;\n    address oracleAddress = 0x4a3fbbb385b5efeb4bc84a25aaadcd644bd09721;\n\n    bytes32 jobId;\n\n    constructor(bytes32 _jobId) public {\n        jobId = _jobId;\n    }\n\n    function createTrade(string _currencyA, string _currencyB) public {\n        ForexTrade newTrade = new ForexTrade(\n            ropstenLINKAddress,\n            oracleAddress,\n            _currencyA,\n            _currencyB,\n            jobId,\n            address(this)\n        );\n        tradesByAddress[msg.sender].push(address(newTrade));\n        contractExists[address(newTrade)] = true;\n    }\n\n    function registerCounterparty() public {\n        require(contractExists[msg.sender] == true, \"Invalid contract\");\n        tradesByAddress[tx.origin].push(msg.sender);\n    }\n\n    function getTradesByAddress(address _counterparty) view returns(address[] _trades){\n        return tradesByAddress[_counterparty];\n    }\n\n\n}\n",
  "sourcePath": "/Users/michaeljcohen/Desktop/projects/forex-trader/contracts/ForexTradeFactory.sol",
  "compiler": {
    "name": "solc",
    "version": "0.4.24+commit.e67f0147.Emscripten.clang"
  },
  "schemaVersion": "3.0.2",
  "updatedAt": "2019-12-06T17:28:02.499Z",
  "devdoc": {
    "methods": {}
  },
  "userdoc": {
    "methods": {}
  }
}